{
  "contractName": "OldTrueUSD",
  "abi": [
    {
      "constant": true,
      "inputs": [],
      "name": "burnMin",
      "outputs": [
        {
          "name": "",
          "type": "uint256"
        }
      ],
      "payable": false,
      "stateMutability": "view",
      "type": "function"
    },
    {
      "constant": true,
      "inputs": [],
      "name": "name",
      "outputs": [
        {
          "name": "",
          "type": "string"
        }
      ],
      "payable": false,
      "stateMutability": "view",
      "type": "function"
    },
    {
      "constant": false,
      "inputs": [
        {
          "name": "spender",
          "type": "address"
        },
        {
          "name": "value",
          "type": "uint256"
        }
      ],
      "name": "approve",
      "outputs": [
        {
          "name": "",
          "type": "bool"
        }
      ],
      "payable": false,
      "stateMutability": "nonpayable",
      "type": "function"
    },
    {
      "constant": true,
      "inputs": [
        {
          "name": "owner",
          "type": "address"
        },
        {
          "name": "spender",
          "type": "address"
        }
      ],
      "name": "delegateAllowance",
      "outputs": [
        {
          "name": "",
          "type": "uint256"
        }
      ],
      "payable": false,
      "stateMutability": "view",
      "type": "function"
    },
    {
      "constant": true,
      "inputs": [],
      "name": "burnFeeFlat",
      "outputs": [
        {
          "name": "",
          "type": "uint256"
        }
      ],
      "payable": false,
      "stateMutability": "view",
      "type": "function"
    },
    {
      "constant": false,
      "inputs": [
        {
          "name": "token",
          "type": "address"
        }
      ],
      "name": "reclaimToken",
      "outputs": [],
      "payable": false,
      "stateMutability": "nonpayable",
      "type": "function"
    },
    {
      "constant": true,
      "inputs": [],
      "name": "totalSupply",
      "outputs": [
        {
          "name": "",
          "type": "uint256"
        }
      ],
      "payable": false,
      "stateMutability": "view",
      "type": "function"
    },
    {
      "constant": false,
      "inputs": [
        {
          "name": "newContract",
          "type": "address"
        }
      ],
      "name": "delegateToNewContract",
      "outputs": [],
      "payable": false,
      "stateMutability": "nonpayable",
      "type": "function"
    },
    {
      "constant": true,
      "inputs": [],
      "name": "canReceiveMintWhiteList",
      "outputs": [
        {
          "name": "",
          "type": "address"
        }
      ],
      "payable": false,
      "stateMutability": "view",
      "type": "function"
    },
    {
      "constant": false,
      "inputs": [
        {
          "name": "from",
          "type": "address"
        },
        {
          "name": "to",
          "type": "address"
        },
        {
          "name": "value",
          "type": "uint256"
        }
      ],
      "name": "transferFrom",
      "outputs": [
        {
          "name": "",
          "type": "bool"
        }
      ],
      "payable": false,
      "stateMutability": "nonpayable",
      "type": "function"
    },
    {
      "constant": true,
      "inputs": [],
      "name": "delegatedFrom",
      "outputs": [
        {
          "name": "",
          "type": "address"
        }
      ],
      "payable": false,
      "stateMutability": "view",
      "type": "function"
    },
    {
      "constant": false,
      "inputs": [
        {
          "name": "spender",
          "type": "address"
        },
        {
          "name": "value",
          "type": "uint256"
        },
        {
          "name": "origSender",
          "type": "address"
        }
      ],
      "name": "delegateApprove",
      "outputs": [
        {
          "name": "",
          "type": "bool"
        }
      ],
      "payable": false,
      "stateMutability": "nonpayable",
      "type": "function"
    },
    {
      "constant": false,
      "inputs": [
        {
          "name": "contractAddr",
          "type": "address"
        }
      ],
      "name": "reclaimContract",
      "outputs": [],
      "payable": false,
      "stateMutability": "nonpayable",
      "type": "function"
    },
    {
      "constant": true,
      "inputs": [],
      "name": "decimals",
      "outputs": [
        {
          "name": "",
          "type": "uint8"
        }
      ],
      "payable": false,
      "stateMutability": "view",
      "type": "function"
    },
    {
      "constant": true,
      "inputs": [],
      "name": "allowances",
      "outputs": [
        {
          "name": "",
          "type": "address"
        }
      ],
      "payable": false,
      "stateMutability": "view",
      "type": "function"
    },
    {
      "constant": false,
      "inputs": [],
      "name": "unpause",
      "outputs": [],
      "payable": false,
      "stateMutability": "nonpayable",
      "type": "function"
    },
    {
      "constant": true,
      "inputs": [
        {
          "name": "who",
          "type": "address"
        }
      ],
      "name": "delegateBalanceOf",
      "outputs": [
        {
          "name": "",
          "type": "uint256"
        }
      ],
      "payable": false,
      "stateMutability": "view",
      "type": "function"
    },
    {
      "constant": false,
      "inputs": [
        {
          "name": "from",
          "type": "address"
        },
        {
          "name": "to",
          "type": "address"
        },
        {
          "name": "value",
          "type": "uint256"
        },
        {
          "name": "origSender",
          "type": "address"
        }
      ],
      "name": "delegateTransferFrom",
      "outputs": [
        {
          "name": "",
          "type": "bool"
        }
      ],
      "payable": false,
      "stateMutability": "nonpayable",
      "type": "function"
    },
    {
      "constant": false,
      "inputs": [],
      "name": "claimOwnership",
      "outputs": [],
      "payable": false,
      "stateMutability": "nonpayable",
      "type": "function"
    },
    {
      "constant": false,
      "inputs": [
        {
          "name": "sheet",
          "type": "address"
        }
      ],
      "name": "setBalanceSheet",
      "outputs": [],
      "payable": false,
      "stateMutability": "nonpayable",
      "type": "function"
    },
    {
      "constant": false,
      "inputs": [
        {
          "name": "spender",
          "type": "address"
        },
        {
          "name": "addedValue",
          "type": "uint256"
        },
        {
          "name": "origSender",
          "type": "address"
        }
      ],
      "name": "delegateIncreaseApproval",
      "outputs": [
        {
          "name": "",
          "type": "bool"
        }
      ],
      "payable": false,
      "stateMutability": "nonpayable",
      "type": "function"
    },
    {
      "constant": true,
      "inputs": [],
      "name": "burnFeeNumerator",
      "outputs": [
        {
          "name": "",
          "type": "uint80"
        }
      ],
      "payable": false,
      "stateMutability": "view",
      "type": "function"
    },
    {
      "constant": true,
      "inputs": [],
      "name": "canBurnWhiteList",
      "outputs": [
        {
          "name": "",
          "type": "address"
        }
      ],
      "payable": false,
      "stateMutability": "view",
      "type": "function"
    },
    {
      "constant": true,
      "inputs": [],
      "name": "burnMax",
      "outputs": [
        {
          "name": "",
          "type": "uint256"
        }
      ],
      "payable": false,
      "stateMutability": "view",
      "type": "function"
    },
    {
      "constant": true,
      "inputs": [],
      "name": "paused",
      "outputs": [
        {
          "name": "",
          "type": "bool"
        }
      ],
      "payable": false,
      "stateMutability": "view",
      "type": "function"
    },
    {
      "constant": true,
      "inputs": [],
      "name": "mintFeeDenominator",
      "outputs": [
        {
          "name": "",
          "type": "uint80"
        }
      ],
      "payable": false,
      "stateMutability": "view",
      "type": "function"
    },
    {
      "constant": true,
      "inputs": [],
      "name": "staker",
      "outputs": [
        {
          "name": "",
          "type": "address"
        }
      ],
      "payable": false,
      "stateMutability": "view",
      "type": "function"
    },
    {
      "constant": false,
      "inputs": [
        {
          "name": "addr",
          "type": "address"
        }
      ],
      "name": "setDelegatedFrom",
      "outputs": [],
      "payable": false,
      "stateMutability": "nonpayable",
      "type": "function"
    },
    {
      "constant": false,
      "inputs": [
        {
          "name": "spender",
          "type": "address"
        },
        {
          "name": "subtractedValue",
          "type": "uint256"
        }
      ],
      "name": "decreaseApproval",
      "outputs": [
        {
          "name": "",
          "type": "bool"
        }
      ],
      "payable": false,
      "stateMutability": "nonpayable",
      "type": "function"
    },
    {
      "constant": true,
      "inputs": [],
      "name": "noFeesList",
      "outputs": [
        {
          "name": "",
          "type": "address"
        }
      ],
      "payable": false,
      "stateMutability": "view",
      "type": "function"
    },
    {
      "constant": true,
      "inputs": [
        {
          "name": "who",
          "type": "address"
        }
      ],
      "name": "balanceOf",
      "outputs": [
        {
          "name": "",
          "type": "uint256"
        }
      ],
      "payable": false,
      "stateMutability": "view",
      "type": "function"
    },
    {
      "constant": true,
      "inputs": [],
      "name": "delegateTotalSupply",
      "outputs": [
        {
          "name": "",
          "type": "uint256"
        }
      ],
      "payable": false,
      "stateMutability": "view",
      "type": "function"
    },
    {
      "constant": true,
      "inputs": [],
      "name": "balances",
      "outputs": [
        {
          "name": "",
          "type": "address"
        }
      ],
      "payable": false,
      "stateMutability": "view",
      "type": "function"
    },
    {
      "constant": false,
      "inputs": [],
      "name": "pause",
      "outputs": [],
      "payable": false,
      "stateMutability": "nonpayable",
      "type": "function"
    },
    {
      "constant": true,
      "inputs": [],
      "name": "mintFeeNumerator",
      "outputs": [
        {
          "name": "",
          "type": "uint80"
        }
      ],
      "payable": false,
      "stateMutability": "view",
      "type": "function"
    },
    {
      "constant": true,
      "inputs": [],
      "name": "owner",
      "outputs": [
        {
          "name": "",
          "type": "address"
        }
      ],
      "payable": false,
      "stateMutability": "view",
      "type": "function"
    },
    {
      "constant": true,
      "inputs": [],
      "name": "transferFeeNumerator",
      "outputs": [
        {
          "name": "",
          "type": "uint80"
        }
      ],
      "payable": false,
      "stateMutability": "view",
      "type": "function"
    },
    {
      "constant": false,
      "inputs": [
        {
          "name": "spender",
          "type": "address"
        },
        {
          "name": "subtractedValue",
          "type": "uint256"
        },
        {
          "name": "origSender",
          "type": "address"
        }
      ],
      "name": "delegateDecreaseApproval",
      "outputs": [
        {
          "name": "",
          "type": "bool"
        }
      ],
      "payable": false,
      "stateMutability": "nonpayable",
      "type": "function"
    },
    {
      "constant": true,
      "inputs": [],
      "name": "symbol",
      "outputs": [
        {
          "name": "",
          "type": "string"
        }
      ],
      "payable": false,
      "stateMutability": "view",
      "type": "function"
    },
    {
      "constant": false,
      "inputs": [
        {
          "name": "to",
          "type": "address"
        },
        {
          "name": "value",
          "type": "uint256"
        },
        {
          "name": "origSender",
          "type": "address"
        }
      ],
      "name": "delegateTransfer",
      "outputs": [
        {
          "name": "",
          "type": "bool"
        }
      ],
      "payable": false,
      "stateMutability": "nonpayable",
      "type": "function"
    },
    {
      "constant": false,
      "inputs": [],
      "name": "reclaimEther",
      "outputs": [],
      "payable": false,
      "stateMutability": "nonpayable",
      "type": "function"
    },
    {
      "constant": false,
      "inputs": [
        {
          "name": "to",
          "type": "address"
        },
        {
          "name": "value",
          "type": "uint256"
        }
      ],
      "name": "transfer",
      "outputs": [
        {
          "name": "",
          "type": "bool"
        }
      ],
      "payable": false,
      "stateMutability": "nonpayable",
      "type": "function"
    },
    {
      "constant": false,
      "inputs": [
        {
          "name": "from_",
          "type": "address"
        },
        {
          "name": "value_",
          "type": "uint256"
        },
        {
          "name": "data_",
          "type": "bytes"
        }
      ],
      "name": "tokenFallback",
      "outputs": [],
      "payable": false,
      "stateMutability": "nonpayable",
      "type": "function"
    },
    {
      "constant": true,
      "inputs": [],
      "name": "burnFeeDenominator",
      "outputs": [
        {
          "name": "",
          "type": "uint80"
        }
      ],
      "payable": false,
      "stateMutability": "view",
      "type": "function"
    },
    {
      "constant": true,
      "inputs": [],
      "name": "delegate",
      "outputs": [
        {
          "name": "",
          "type": "address"
        }
      ],
      "payable": false,
      "stateMutability": "view",
      "type": "function"
    },
    {
      "constant": true,
      "inputs": [],
      "name": "blackList",
      "outputs": [
        {
          "name": "",
          "type": "address"
        }
      ],
      "payable": false,
      "stateMutability": "view",
      "type": "function"
    },
    {
      "constant": true,
      "inputs": [],
      "name": "transferFeeDenominator",
      "outputs": [
        {
          "name": "",
          "type": "uint80"
        }
      ],
      "payable": false,
      "stateMutability": "view",
      "type": "function"
    },
    {
      "constant": true,
      "inputs": [],
      "name": "mintFeeFlat",
      "outputs": [
        {
          "name": "",
          "type": "uint256"
        }
      ],
      "payable": false,
      "stateMutability": "view",
      "type": "function"
    },
    {
      "constant": false,
      "inputs": [
        {
          "name": "spender",
          "type": "address"
        },
        {
          "name": "addedValue",
          "type": "uint256"
        }
      ],
      "name": "increaseApproval",
      "outputs": [
        {
          "name": "",
          "type": "bool"
        }
      ],
      "payable": false,
      "stateMutability": "nonpayable",
      "type": "function"
    },
    {
      "constant": true,
      "inputs": [
        {
          "name": "_owner",
          "type": "address"
        },
        {
          "name": "spender",
          "type": "address"
        }
      ],
      "name": "allowance",
      "outputs": [
        {
          "name": "",
          "type": "uint256"
        }
      ],
      "payable": false,
      "stateMutability": "view",
      "type": "function"
    },
    {
      "constant": true,
      "inputs": [],
      "name": "pendingOwner",
      "outputs": [
        {
          "name": "",
          "type": "address"
        }
      ],
      "payable": false,
      "stateMutability": "view",
      "type": "function"
    },
    {
      "constant": false,
      "inputs": [
        {
          "name": "sheet",
          "type": "address"
        }
      ],
      "name": "setAllowanceSheet",
      "outputs": [],
      "payable": false,
      "stateMutability": "nonpayable",
      "type": "function"
    },
    {
      "constant": false,
      "inputs": [
        {
          "name": "newOwner",
          "type": "address"
        }
      ],
      "name": "transferOwnership",
      "outputs": [],
      "payable": false,
      "stateMutability": "nonpayable",
      "type": "function"
    },
    {
      "inputs": [],
      "payable": false,
      "stateMutability": "nonpayable",
      "type": "constructor"
    },
    {
      "payable": false,
      "stateMutability": "nonpayable",
      "type": "fallback"
    },
    {
      "anonymous": false,
      "inputs": [
        {
          "indexed": false,
          "name": "newMin",
          "type": "uint256"
        },
        {
          "indexed": false,
          "name": "newMax",
          "type": "uint256"
        }
      ],
      "name": "ChangeBurnBoundsEvent",
      "type": "event"
    },
    {
      "anonymous": false,
      "inputs": [
        {
          "indexed": true,
          "name": "to",
          "type": "address"
        },
        {
          "indexed": false,
          "name": "amount",
          "type": "uint256"
        }
      ],
      "name": "Mint",
      "type": "event"
    },
    {
      "anonymous": false,
      "inputs": [
        {
          "indexed": true,
          "name": "account",
          "type": "address"
        },
        {
          "indexed": false,
          "name": "balance",
          "type": "uint256"
        }
      ],
      "name": "WipedAccount",
      "type": "event"
    },
    {
      "anonymous": false,
      "inputs": [
        {
          "indexed": true,
          "name": "newContract",
          "type": "address"
        }
      ],
      "name": "DelegatedTo",
      "type": "event"
    },
    {
      "anonymous": false,
      "inputs": [
        {
          "indexed": true,
          "name": "burner",
          "type": "address"
        },
        {
          "indexed": false,
          "name": "value",
          "type": "uint256"
        }
      ],
      "name": "Burn",
      "type": "event"
    },
    {
      "anonymous": false,
      "inputs": [],
      "name": "Pause",
      "type": "event"
    },
    {
      "anonymous": false,
      "inputs": [],
      "name": "Unpause",
      "type": "event"
    },
    {
      "anonymous": false,
      "inputs": [
        {
          "indexed": true,
          "name": "previousOwner",
          "type": "address"
        },
        {
          "indexed": true,
          "name": "newOwner",
          "type": "address"
        }
      ],
      "name": "OwnershipTransferred",
      "type": "event"
    },
    {
      "anonymous": false,
      "inputs": [
        {
          "indexed": true,
          "name": "owner",
          "type": "address"
        },
        {
          "indexed": true,
          "name": "spender",
          "type": "address"
        },
        {
          "indexed": false,
          "name": "value",
          "type": "uint256"
        }
      ],
      "name": "Approval",
      "type": "event"
    },
    {
      "anonymous": false,
      "inputs": [
        {
          "indexed": true,
          "name": "from",
          "type": "address"
        },
        {
          "indexed": true,
          "name": "to",
          "type": "address"
        },
        {
          "indexed": false,
          "name": "value",
          "type": "uint256"
        }
      ],
      "name": "Transfer",
      "type": "event"
    },
    {
      "constant": false,
      "inputs": [
        {
          "name": "_canReceiveMintWhiteList",
          "type": "address"
        },
        {
          "name": "_canBurnWhiteList",
          "type": "address"
        },
        {
          "name": "_blackList",
          "type": "address"
        },
        {
          "name": "_noFeesList",
          "type": "address"
        }
      ],
      "name": "setLists",
      "outputs": [],
      "payable": false,
      "stateMutability": "nonpayable",
      "type": "function"
    },
    {
      "constant": false,
      "inputs": [
        {
          "name": "_name",
          "type": "string"
        },
        {
          "name": "_symbol",
          "type": "string"
        }
      ],
      "name": "changeName",
      "outputs": [],
      "payable": false,
      "stateMutability": "nonpayable",
      "type": "function"
    },
    {
      "constant": false,
      "inputs": [
        {
          "name": "_value",
          "type": "uint256"
        }
      ],
      "name": "burn",
      "outputs": [],
      "payable": false,
      "stateMutability": "nonpayable",
      "type": "function"
    },
    {
      "constant": false,
      "inputs": [
        {
          "name": "_to",
          "type": "address"
        },
        {
          "name": "_amount",
          "type": "uint256"
        }
      ],
      "name": "mint",
      "outputs": [],
      "payable": false,
      "stateMutability": "nonpayable",
      "type": "function"
    },
    {
      "constant": false,
      "inputs": [
        {
          "name": "newMin",
          "type": "uint256"
        },
        {
          "name": "newMax",
          "type": "uint256"
        }
      ],
      "name": "changeBurnBounds",
      "outputs": [],
      "payable": false,
      "stateMutability": "nonpayable",
      "type": "function"
    },
    {
      "constant": false,
      "inputs": [
        {
          "name": "account",
          "type": "address"
        }
      ],
      "name": "wipeBlacklistedAccount",
      "outputs": [],
      "payable": false,
      "stateMutability": "nonpayable",
      "type": "function"
    },
    {
      "constant": false,
      "inputs": [
        {
          "name": "_transferFeeNumerator",
          "type": "uint80"
        },
        {
          "name": "_transferFeeDenominator",
          "type": "uint80"
        },
        {
          "name": "_mintFeeNumerator",
          "type": "uint80"
        },
        {
          "name": "_mintFeeDenominator",
          "type": "uint80"
        },
        {
          "name": "_mintFeeFlat",
          "type": "uint256"
        },
        {
          "name": "_burnFeeNumerator",
          "type": "uint80"
        },
        {
          "name": "_burnFeeDenominator",
          "type": "uint80"
        },
        {
          "name": "_burnFeeFlat",
          "type": "uint256"
        }
      ],
      "name": "changeStakingFees",
      "outputs": [],
      "payable": false,
      "stateMutability": "nonpayable",
      "type": "function"
    },
    {
      "constant": false,
      "inputs": [
        {
          "name": "newStaker",
          "type": "address"
        }
      ],
      "name": "changeStaker",
      "outputs": [],
      "payable": false,
      "stateMutability": "nonpayable",
      "type": "function"
    }
  ],
  "bytecode": "0x60806040526000600560146101000a81548160ff0219169083151502179055506040805190810160405280600781526020017f5472756555534400000000000000000000000000000000000000000000000000815250600790805190602001906200006c929190620002a9565b506040805190810160405280600481526020017f545553440000000000000000000000000000000000000000000000000000000081525060089080519060200190620000ba929190620002a9565b50601260ff16600a0a61271002600d55601260ff16600a0a6301312d0002600e556007600f60006101000a81548169ffffffffffffffffffff021916908369ffffffffffffffffffff160217905550612710600f600a6101000a81548169ffffffffffffffffffff021916908369ffffffffffffffffffff1602179055506000600f60146101000a81548169ffffffffffffffffffff021916908369ffffffffffffffffffff160217905550612710601060006101000a81548169ffffffffffffffffffff021916908369ffffffffffffffffffff16021790555060006011556000601260006101000a81548169ffffffffffffffffffff021916908369ffffffffffffffffffff1602179055506127106012600a6101000a81548169ffffffffffffffffffff021916908369ffffffffffffffffffff16021790555060006013553480156200020957600080fd5b50336000806101000a81548173ffffffffffffffffffffffffffffffffffffffff021916908373ffffffffffffffffffffffffffffffffffffffff1602179055506000341415156200025a57600080fd5b600060038190555033601460006101000a81548173ffffffffffffffffffffffffffffffffffffffff021916908373ffffffffffffffffffffffffffffffffffffffff16021790555062000358565b828054600181600116156101000203166002900490600052602060002090601f016020900481019282601f10620002ec57805160ff19168380011785556200031d565b828001600101855582156200031d579182015b828111156200031c578251825591602001919060010190620002ff565b5b5090506200032c919062000330565b5090565b6200035591905b808211156200035157600081600090555060010162000337565b5090565b90565b615ef780620003686000396000f3006080604052600436106102d5576000357c0100000000000000000000000000000000000000000000000000000000900463ffffffff16806302d3fdc9146102e457806306fdde031461030f578063095ea7b31461039f57806309ab8bba146104045780630b8e845a1461047b5780630ce51179146104a657806317ffc3201461054957806318160ddd1461058c5780631d2d8400146105b75780631db8cb3f146105fa5780631f7af1df146106b557806323b872dd1461070c57806326fe995114610791578063296f4000146107e85780632aed7f3f1461086d578063313ce567146108b05780633ed10b92146108e15780633f4ba83a1461093857806340c10f191461094f57806342966c681461099c57806343a468c8146109c95780634df6b45d14610a205780634e71e0c814610ac557806354f78dad14610adc578063554249b314610b1f57806356e1c40d14610ba45780635a44413914610be75780635c131d7014610c3e5780635c975abb14610c695780635db07aee14610c985780635ebaf1db14610cdb57806361927adb14610d325780636618846314610d755780636d4717fe14610dda57806370a0823114610e3157806370df42e114610e8857806376e71dd814610ebf5780637bb98a6814610eea5780638456cb5914610f4157806386575e4014610f585780638d93eac2146110075780638da5cb5b1461104a5780638f98ce8f146110a157806393d3173a146110e457806395d89b41146111695780639cd1a121146111f95780639f727c271461127e578063a9059cbb14611295578063ab55979d146112fa578063bd7243f61461133d578063c0ee0b8a14611380578063c18f4831146113e5578063c89e436114611428578063cdab73b51461147f578063d42cfc41146114d6578063d63a138914611519578063d73dd62314611544578063dd62ed3e146115a9578063e30c397814611620578063edc1e4f914611677578063f2fde38b146116ba575b3480156102e157600080fd5b50005b3480156102f057600080fd5b506102f96116fd565b6040518082815260200191505060405180910390f35b34801561031b57600080fd5b50610324611703565b6040518080602001828103825283818151815260200191508051906020019080838360005b83811015610364578082015181840152602081019050610349565b50505050905090810190601f1680156103915780820380516001836020036101000a031916815260200191505b509250505060405180910390f35b3480156103ab57600080fd5b506103ea600480360381019080803573ffffffffffffffffffffffffffffffffffffffff169060200190929190803590602001909291905050506117a1565b604051808215151515815260200191505060405180910390f35b34801561041057600080fd5b50610465600480360381019080803573ffffffffffffffffffffffffffffffffffffffff169060200190929190803573ffffffffffffffffffffffffffffffffffffffff169060200190929190505050611947565b6040518082815260200191505060405180910390f35b34801561048757600080fd5b5061049061195b565b6040518082815260200191505060405180910390f35b3480156104b257600080fd5b50610547600480360381019080803573ffffffffffffffffffffffffffffffffffffffff169060200190929190803573ffffffffffffffffffffffffffffffffffffffff169060200190929190803573ffffffffffffffffffffffffffffffffffffffff169060200190929190803573ffffffffffffffffffffffffffffffffffffffff169060200190929190505050611961565b005b34801561055557600080fd5b5061058a600480360381019080803573ffffffffffffffffffffffffffffffffffffffff169060200190929190505050611ac6565b005b34801561059857600080fd5b506105a1611c4b565b6040518082815260200191505060405180910390f35b3480156105c357600080fd5b506105f8600480360381019080803573ffffffffffffffffffffffffffffffffffffffff169060200190929190505050611d79565b005b34801561060657600080fd5b506106b3600480360381019080803569ffffffffffffffffffff169060200190929190803569ffffffffffffffffffff169060200190929190803569ffffffffffffffffffff169060200190929190803569ffffffffffffffffffff16906020019092919080359060200190929190803569ffffffffffffffffffff169060200190929190803569ffffffffffffffffffff16906020019092919080359060200190929190505050611e7d565b005b3480156106c157600080fd5b506106ca612052565b604051808273ffffffffffffffffffffffffffffffffffffffff1673ffffffffffffffffffffffffffffffffffffffff16815260200191505060405180910390f35b34801561071857600080fd5b50610777600480360381019080803573ffffffffffffffffffffffffffffffffffffffff169060200190929190803573ffffffffffffffffffffffffffffffffffffffff16906020019092919080359060200190929190505050612078565b604051808215151515815260200191505060405180910390f35b34801561079d57600080fd5b506107a6612254565b604051808273ffffffffffffffffffffffffffffffffffffffff1673ffffffffffffffffffffffffffffffffffffffff16815260200191505060405180910390f35b3480156107f457600080fd5b50610853600480360381019080803573ffffffffffffffffffffffffffffffffffffffff16906020019092919080359060200190929190803573ffffffffffffffffffffffffffffffffffffffff16906020019092919050505061227a565b604051808215151515815260200191505060405180910390f35b34801561087957600080fd5b506108ae600480360381019080803573ffffffffffffffffffffffffffffffffffffffff1690602001909291905050506122f0565b005b3480156108bc57600080fd5b506108c5612428565b604051808260ff1660ff16815260200191505060405180910390f35b3480156108ed57600080fd5b506108f661242d565b604051808273ffffffffffffffffffffffffffffffffffffffff1673ffffffffffffffffffffffffffffffffffffffff16815260200191505060405180910390f35b34801561094457600080fd5b5061094d612453565b005b34801561095b57600080fd5b5061099a600480360381019080803573ffffffffffffffffffffffffffffffffffffffff16906020019092919080359060200190929190505050612512565b005b3480156109a857600080fd5b506109c760048036038101908080359060200190929190505050612862565b005b3480156109d557600080fd5b50610a0a600480360381019080803573ffffffffffffffffffffffffffffffffffffffff1690602001909291905050506129f0565b6040518082815260200191505060405180910390f35b348015610a2c57600080fd5b50610aab600480360381019080803573ffffffffffffffffffffffffffffffffffffffff169060200190929190803573ffffffffffffffffffffffffffffffffffffffff16906020019092919080359060200190929190803573ffffffffffffffffffffffffffffffffffffffff169060200190929190505050612a02565b604051808215151515815260200191505060405180910390f35b348015610ad157600080fd5b50610ada612a7a565b005b348015610ae857600080fd5b50610b1d600480360381019080803573ffffffffffffffffffffffffffffffffffffffff169060200190929190505050612c19565b005b348015610b2b57600080fd5b50610b8a600480360381019080803573ffffffffffffffffffffffffffffffffffffffff16906020019092919080359060200190929190803573ffffffffffffffffffffffffffffffffffffffff169060200190929190505050612d56565b604051808215151515815260200191505060405180910390f35b348015610bb057600080fd5b50610bb9612dcc565b604051808269ffffffffffffffffffff1669ffffffffffffffffffff16815260200191505060405180910390f35b348015610bf357600080fd5b50610bfc612de8565b604051808273ffffffffffffffffffffffffffffffffffffffff1673ffffffffffffffffffffffffffffffffffffffff16815260200191505060405180910390f35b348015610c4a57600080fd5b50610c53612e0e565b6040518082815260200191505060405180910390f35b348015610c7557600080fd5b50610c7e612e14565b604051808215151515815260200191505060405180910390f35b348015610ca457600080fd5b50610cad612e27565b604051808269ffffffffffffffffffff1669ffffffffffffffffffff16815260200191505060405180910390f35b348015610ce757600080fd5b50610cf0612e43565b604051808273ffffffffffffffffffffffffffffffffffffffff1673ffffffffffffffffffffffffffffffffffffffff16815260200191505060405180910390f35b348015610d3e57600080fd5b50610d73600480360381019080803573ffffffffffffffffffffffffffffffffffffffff169060200190929190505050612e69565b005b348015610d8157600080fd5b50610dc0600480360381019080803573ffffffffffffffffffffffffffffffffffffffff16906020019092919080359060200190929190505050612f08565b604051808215151515815260200191505060405180910390f35b348015610de657600080fd5b50610def6130ae565b604051808273ffffffffffffffffffffffffffffffffffffffff1673ffffffffffffffffffffffffffffffffffffffff16815260200191505060405180910390f35b348015610e3d57600080fd5b50610e72600480360381019080803573ffffffffffffffffffffffffffffffffffffffff1690602001909291905050506130d4565b6040518082815260200191505060405180910390f35b348015610e9457600080fd5b50610ebd600480360381019080803590602001909291908035906020019092919050505061323c565b005b348015610ecb57600080fd5b50610ed46132f7565b6040518082815260200191505060405180910390f35b348015610ef657600080fd5b50610eff613306565b604051808273ffffffffffffffffffffffffffffffffffffffff1673ffffffffffffffffffffffffffffffffffffffff16815260200191505060405180910390f35b348015610f4d57600080fd5b50610f5661332c565b005b348015610f6457600080fd5b50611005600480360381019080803590602001908201803590602001908080601f0160208091040260200160405190810160405280939291908181526020018383808284378201915050505050509192919290803590602001908201803590602001908080601f01602080910402602001604051908101604052809392919081815260200183838082843782019150505050505091929192905050506133ec565b005b34801561101357600080fd5b5061101c613479565b604051808269ffffffffffffffffffff1669ffffffffffffffffffff16815260200191505060405180910390f35b34801561105657600080fd5b5061105f613495565b604051808273ffffffffffffffffffffffffffffffffffffffff1673ffffffffffffffffffffffffffffffffffffffff16815260200191505060405180910390f35b3480156110ad57600080fd5b506110b66134ba565b604051808269ffffffffffffffffffff1669ffffffffffffffffffff16815260200191505060405180910390f35b3480156110f057600080fd5b5061114f600480360381019080803573ffffffffffffffffffffffffffffffffffffffff16906020019092919080359060200190929190803573ffffffffffffffffffffffffffffffffffffffff1690602001909291905050506134d6565b604051808215151515815260200191505060405180910390f35b34801561117557600080fd5b5061117e61354c565b6040518080602001828103825283818151815260200191508051906020019080838360005b838110156111be5780820151818401526020810190506111a3565b50505050905090810190601f1680156111eb5780820380516001836020036101000a031916815260200191505b509250505060405180910390f35b34801561120557600080fd5b50611264600480360381019080803573ffffffffffffffffffffffffffffffffffffffff16906020019092919080359060200190929190803573ffffffffffffffffffffffffffffffffffffffff1690602001909291905050506135ea565b604051808215151515815260200191505060405180910390f35b34801561128a57600080fd5b50611293613660565b005b3480156112a157600080fd5b506112e0600480360381019080803573ffffffffffffffffffffffffffffffffffffffff16906020019092919080359060200190929190505050613732565b604051808215151515815260200191505060405180910390f35b34801561130657600080fd5b5061133b600480360381019080803573ffffffffffffffffffffffffffffffffffffffff1690602001909291905050506138d8565b005b34801561134957600080fd5b5061137e600480360381019080803573ffffffffffffffffffffffffffffffffffffffff1690602001909291905050506139b3565b005b34801561138c57600080fd5b506113e3600480360381019080803573ffffffffffffffffffffffffffffffffffffffff16906020019092919080359060200190929190803590602001908201803590602001919091929391929390505050613c69565b005b3480156113f157600080fd5b506113fa613c6e565b604051808269ffffffffffffffffffff1669ffffffffffffffffffff16815260200191505060405180910390f35b34801561143457600080fd5b5061143d613c8a565b604051808273ffffffffffffffffffffffffffffffffffffffff1673ffffffffffffffffffffffffffffffffffffffff16815260200191505060405180910390f35b34801561148b57600080fd5b50611494613cb0565b604051808273ffffffffffffffffffffffffffffffffffffffff1673ffffffffffffffffffffffffffffffffffffffff16815260200191505060405180910390f35b3480156114e257600080fd5b506114eb613cd6565b604051808269ffffffffffffffffffff1669ffffffffffffffffffff16815260200191505060405180910390f35b34801561152557600080fd5b5061152e613cf2565b6040518082815260200191505060405180910390f35b34801561155057600080fd5b5061158f600480360381019080803573ffffffffffffffffffffffffffffffffffffffff16906020019092919080359060200190929190505050613cf8565b604051808215151515815260200191505060405180910390f35b3480156115b557600080fd5b5061160a600480360381019080803573ffffffffffffffffffffffffffffffffffffffff169060200190929190803573ffffffffffffffffffffffffffffffffffffffff169060200190929190505050613e9e565b6040518082815260200191505060405180910390f35b34801561162c57600080fd5b5061163561403c565b604051808273ffffffffffffffffffffffffffffffffffffffff1673ffffffffffffffffffffffffffffffffffffffff16815260200191505060405180910390f35b34801561168357600080fd5b506116b8600480360381019080803573ffffffffffffffffffffffffffffffffffffffff169060200190929190505050614062565b005b3480156116c657600080fd5b506116fb600480360381019080803573ffffffffffffffffffffffffffffffffffffffff16906020019092919050505061419f565b005b600d5481565b60078054600181600116156101000203166002900480601f0160208091040260200160405190810160405280929190818152602001828054600181600116156101000203166002900480156117995780601f1061176e57610100808354040283529160200191611799565b820191906000526020600020905b81548152906001019060200180831161177c57829003601f168201915b505050505081565b60008073ffffffffffffffffffffffffffffffffffffffff16600660009054906101000a900473ffffffffffffffffffffffffffffffffffffffff1673ffffffffffffffffffffffffffffffffffffffff16141561180a57611803838361423e565b9050611941565b600660009054906101000a900473ffffffffffffffffffffffffffffffffffffffff1673ffffffffffffffffffffffffffffffffffffffff1663296f40008484336040518463ffffffff167c0100000000000000000000000000000000000000000000000000000000028152600401808473ffffffffffffffffffffffffffffffffffffffff1673ffffffffffffffffffffffffffffffffffffffff1681526020018381526020018273ffffffffffffffffffffffffffffffffffffffff1673ffffffffffffffffffffffffffffffffffffffff1681526020019350505050602060405180830381600087803b15801561190357600080fd5b505af1158015611917573d6000803e3d6000fd5b505050506040513d602081101561192d57600080fd5b810190808051906020019092919050505090505b92915050565b60006119538383613e9e565b905092915050565b60135481565b6000809054906101000a900473ffffffffffffffffffffffffffffffffffffffff1673ffffffffffffffffffffffffffffffffffffffff163373ffffffffffffffffffffffffffffffffffffffff161415156119bc57600080fd5b83600960006101000a81548173ffffffffffffffffffffffffffffffffffffffff021916908373ffffffffffffffffffffffffffffffffffffffff16021790555082600a60006101000a81548173ffffffffffffffffffffffffffffffffffffffff021916908373ffffffffffffffffffffffffffffffffffffffff16021790555081600b60006101000a81548173ffffffffffffffffffffffffffffffffffffffff021916908373ffffffffffffffffffffffffffffffffffffffff16021790555080600c60006101000a81548173ffffffffffffffffffffffffffffffffffffffff021916908373ffffffffffffffffffffffffffffffffffffffff16021790555050505050565b60008060009054906101000a900473ffffffffffffffffffffffffffffffffffffffff1673ffffffffffffffffffffffffffffffffffffffff163373ffffffffffffffffffffffffffffffffffffffff16141515611b2357600080fd5b8173ffffffffffffffffffffffffffffffffffffffff166370a08231306040518263ffffffff167c0100000000000000000000000000000000000000000000000000000000028152600401808273ffffffffffffffffffffffffffffffffffffffff1673ffffffffffffffffffffffffffffffffffffffff168152602001915050602060405180830381600087803b158015611bbe57600080fd5b505af1158015611bd2573d6000803e3d6000fd5b505050506040513d6020811015611be857600080fd5b81019080805190602001909291905050509050611c476000809054906101000a900473ffffffffffffffffffffffffffffffffffffffff16828473ffffffffffffffffffffffffffffffffffffffff1661426e9092919063ffffffff16565b5050565b60008073ffffffffffffffffffffffffffffffffffffffff16600660009054906101000a900473ffffffffffffffffffffffffffffffffffffffff1673ffffffffffffffffffffffffffffffffffffffff161415611cb257611cab614359565b9050611d76565b600660009054906101000a900473ffffffffffffffffffffffffffffffffffffffff1673ffffffffffffffffffffffffffffffffffffffff166376e71dd86040518163ffffffff167c0100000000000000000000000000000000000000000000000000000000028152600401602060405180830381600087803b158015611d3857600080fd5b505af1158015611d4c573d6000803e3d6000fd5b505050506040513d6020811015611d6257600080fd5b810190808051906020019092919050505090505b90565b6000809054906101000a900473ffffffffffffffffffffffffffffffffffffffff1673ffffffffffffffffffffffffffffffffffffffff163373ffffffffffffffffffffffffffffffffffffffff16141515611dd457600080fd5b80600660006101000a81548173ffffffffffffffffffffffffffffffffffffffff021916908373ffffffffffffffffffffffffffffffffffffffff160217905550600660009054906101000a900473ffffffffffffffffffffffffffffffffffffffff1673ffffffffffffffffffffffffffffffffffffffff167feef3c91406f155f6bf1d8754e73003590b8bfa5cfa5472ee9ea936761864ea3060405160405180910390a250565b6000809054906101000a900473ffffffffffffffffffffffffffffffffffffffff1673ffffffffffffffffffffffffffffffffffffffff163373ffffffffffffffffffffffffffffffffffffffff16141515611ed857600080fd5b60008769ffffffffffffffffffff1614151515611ef457600080fd5b60008569ffffffffffffffffffff1614151515611f1057600080fd5b60008269ffffffffffffffffffff1614151515611f2c57600080fd5b87600f60006101000a81548169ffffffffffffffffffff021916908369ffffffffffffffffffff16021790555086600f600a6101000a81548169ffffffffffffffffffff021916908369ffffffffffffffffffff16021790555085600f60146101000a81548169ffffffffffffffffffff021916908369ffffffffffffffffffff16021790555084601060006101000a81548169ffffffffffffffffffff021916908369ffffffffffffffffffff1602179055508360118190555082601260006101000a81548169ffffffffffffffffffff021916908369ffffffffffffffffffff160217905550816012600a6101000a81548169ffffffffffffffffffff021916908369ffffffffffffffffffff160217905550806013819055505050505050505050565b600960009054906101000a900473ffffffffffffffffffffffffffffffffffffffff1681565b60008073ffffffffffffffffffffffffffffffffffffffff16600660009054906101000a900473ffffffffffffffffffffffffffffffffffffffff1673ffffffffffffffffffffffffffffffffffffffff1614156120e2576120db848484614363565b905061224d565b600660009054906101000a900473ffffffffffffffffffffffffffffffffffffffff1673ffffffffffffffffffffffffffffffffffffffff16634df6b45d858585336040518563ffffffff167c0100000000000000000000000000000000000000000000000000000000028152600401808573ffffffffffffffffffffffffffffffffffffffff1673ffffffffffffffffffffffffffffffffffffffff1681526020018473ffffffffffffffffffffffffffffffffffffffff1673ffffffffffffffffffffffffffffffffffffffff1681526020018381526020018273ffffffffffffffffffffffffffffffffffffffff1673ffffffffffffffffffffffffffffffffffffffff168152602001945050505050602060405180830381600087803b15801561220f57600080fd5b505af1158015612223573d6000803e3d6000fd5b505050506040513d602081101561223957600080fd5b810190808051906020019092919050505090505b9392505050565b600560009054906101000a900473ffffffffffffffffffffffffffffffffffffffff1681565b6000600560009054906101000a900473ffffffffffffffffffffffffffffffffffffffff168073ffffffffffffffffffffffffffffffffffffffff163373ffffffffffffffffffffffffffffffffffffffff161415156122d957600080fd5b6122e4858585614395565b60019150509392505050565b60008060009054906101000a900473ffffffffffffffffffffffffffffffffffffffff1673ffffffffffffffffffffffffffffffffffffffff163373ffffffffffffffffffffffffffffffffffffffff1614151561234d57600080fd5b8190508073ffffffffffffffffffffffffffffffffffffffff1663f2fde38b6000809054906101000a900473ffffffffffffffffffffffffffffffffffffffff166040518263ffffffff167c0100000000000000000000000000000000000000000000000000000000028152600401808273ffffffffffffffffffffffffffffffffffffffff1673ffffffffffffffffffffffffffffffffffffffff168152602001915050600060405180830381600087803b15801561240c57600080fd5b505af1158015612420573d6000803e3d6000fd5b505050505050565b601281565b600460009054906101000a900473ffffffffffffffffffffffffffffffffffffffff1681565b6000809054906101000a900473ffffffffffffffffffffffffffffffffffffffff1673ffffffffffffffffffffffffffffffffffffffff163373ffffffffffffffffffffffffffffffffffffffff161415156124ae57600080fd5b600560149054906101000a900460ff1615156124c957600080fd5b6000600560146101000a81548160ff0219169083151502179055507f7805862f689e2f13df9f062ff482ad3ad112aca9e0847911ed832e158c525b3360405160405180910390a1565b6000809054906101000a900473ffffffffffffffffffffffffffffffffffffffff1673ffffffffffffffffffffffffffffffffffffffff163373ffffffffffffffffffffffffffffffffffffffff1614151561256d57600080fd5b600960009054906101000a900473ffffffffffffffffffffffffffffffffffffffff1673ffffffffffffffffffffffffffffffffffffffff16636f626eb3836040518263ffffffff167c0100000000000000000000000000000000000000000000000000000000028152600401808273ffffffffffffffffffffffffffffffffffffffff1673ffffffffffffffffffffffffffffffffffffffff168152602001915050602060405180830381600087803b15801561262a57600080fd5b505af115801561263e573d6000803e3d6000fd5b505050506040513d602081101561265457600080fd5b8101908080519060200190929190505050151561267057600080fd5b6126858160035461451090919063ffffffff16565b600381905550600260009054906101000a900473ffffffffffffffffffffffffffffffffffffffff1673ffffffffffffffffffffffffffffffffffffffff166321e5383a83836040518363ffffffff167c0100000000000000000000000000000000000000000000000000000000028152600401808373ffffffffffffffffffffffffffffffffffffffff1673ffffffffffffffffffffffffffffffffffffffff16815260200182815260200192505050600060405180830381600087803b15801561275057600080fd5b505af1158015612764573d6000803e3d6000fd5b505050508173ffffffffffffffffffffffffffffffffffffffff167f0f6798a560793a54c3bcfe86a93cde1e73087d944c0ea20544137d4121396885826040518082815260200191505060405180910390a28173ffffffffffffffffffffffffffffffffffffffff16600073ffffffffffffffffffffffffffffffffffffffff167fddf252ad1be2c89b69c2b068fc378daa952ba7f163c4a11628f55a4df523b3ef836040518082815260200191505060405180910390a361285d8282600f60149054906101000a900469ffffffffffffffffffff16601060009054906101000a900469ffffffffffffffffffff16601154600061452e565b505050565b600080600a60009054906101000a900473ffffffffffffffffffffffffffffffffffffffff1673ffffffffffffffffffffffffffffffffffffffff16636f626eb3336040518263ffffffff167c0100000000000000000000000000000000000000000000000000000000028152600401808273ffffffffffffffffffffffffffffffffffffffff1673ffffffffffffffffffffffffffffffffffffffff168152602001915050602060405180830381600087803b15801561292257600080fd5b505af1158015612936573d6000803e3d6000fd5b505050506040513d602081101561294c57600080fd5b8101908080519060200190929190505050151561296857600080fd5b600d54831015151561297957600080fd5b600e54831115151561298a57600080fd5b6129cb3384601260009054906101000a900469ffffffffffffffffffff166012600a9054906101000a900469ffffffffffffffffffff16601354600061452e565b91506129e082846147cd90919063ffffffff16565b90506129eb816147e6565b505050565b60006129fb826130d4565b9050919050565b6000600560009054906101000a900473ffffffffffffffffffffffffffffffffffffffff168073ffffffffffffffffffffffffffffffffffffffff163373ffffffffffffffffffffffffffffffffffffffff16141515612a6157600080fd5b612a6d86868686614aa1565b6001915050949350505050565b600160009054906101000a900473ffffffffffffffffffffffffffffffffffffffff1673ffffffffffffffffffffffffffffffffffffffff163373ffffffffffffffffffffffffffffffffffffffff16141515612ad657600080fd5b600160009054906101000a900473ffffffffffffffffffffffffffffffffffffffff1673ffffffffffffffffffffffffffffffffffffffff166000809054906101000a900473ffffffffffffffffffffffffffffffffffffffff1673ffffffffffffffffffffffffffffffffffffffff167f8be0079c531659141344cd1fd0a4f28419497f9722a3daafe3b4186f6b6457e060405160405180910390a3600160009054906101000a900473ffffffffffffffffffffffffffffffffffffffff166000806101000a81548173ffffffffffffffffffffffffffffffffffffffff021916908373ffffffffffffffffffffffffffffffffffffffff1602179055506000600160006101000a81548173ffffffffffffffffffffffffffffffffffffffff021916908373ffffffffffffffffffffffffffffffffffffffff160217905550565b6000809054906101000a900473ffffffffffffffffffffffffffffffffffffffff1673ffffffffffffffffffffffffffffffffffffffff163373ffffffffffffffffffffffffffffffffffffffff16141515612c7457600080fd5b80600260006101000a81548173ffffffffffffffffffffffffffffffffffffffff021916908373ffffffffffffffffffffffffffffffffffffffff160217905550600260009054906101000a900473ffffffffffffffffffffffffffffffffffffffff1673ffffffffffffffffffffffffffffffffffffffff16634e71e0c86040518163ffffffff167c0100000000000000000000000000000000000000000000000000000000028152600401600060405180830381600087803b158015612d3b57600080fd5b505af1158015612d4f573d6000803e3d6000fd5b5050505050565b6000600560009054906101000a900473ffffffffffffffffffffffffffffffffffffffff168073ffffffffffffffffffffffffffffffffffffffff163373ffffffffffffffffffffffffffffffffffffffff16141515612db557600080fd5b612dc0858585614cfd565b60019150509392505050565b601260009054906101000a900469ffffffffffffffffffff1681565b600a60009054906101000a900473ffffffffffffffffffffffffffffffffffffffff1681565b600e5481565b600560149054906101000a900460ff1681565b601060009054906101000a900469ffffffffffffffffffff1681565b601460009054906101000a900473ffffffffffffffffffffffffffffffffffffffff1681565b6000809054906101000a900473ffffffffffffffffffffffffffffffffffffffff1673ffffffffffffffffffffffffffffffffffffffff163373ffffffffffffffffffffffffffffffffffffffff16141515612ec457600080fd5b80600560006101000a81548173ffffffffffffffffffffffffffffffffffffffff021916908373ffffffffffffffffffffffffffffffffffffffff16021790555050565b60008073ffffffffffffffffffffffffffffffffffffffff16600660009054906101000a900473ffffffffffffffffffffffffffffffffffffffff1673ffffffffffffffffffffffffffffffffffffffff161415612f7157612f6a8383614fa3565b90506130a8565b600660009054906101000a900473ffffffffffffffffffffffffffffffffffffffff1673ffffffffffffffffffffffffffffffffffffffff166393d3173a8484336040518463ffffffff167c0100000000000000000000000000000000000000000000000000000000028152600401808473ffffffffffffffffffffffffffffffffffffffff1673ffffffffffffffffffffffffffffffffffffffff1681526020018381526020018273ffffffffffffffffffffffffffffffffffffffff1673ffffffffffffffffffffffffffffffffffffffff1681526020019350505050602060405180830381600087803b15801561306a57600080fd5b505af115801561307e573d6000803e3d6000fd5b505050506040513d602081101561309457600080fd5b810190808051906020019092919050505090505b92915050565b600c60009054906101000a900473ffffffffffffffffffffffffffffffffffffffff1681565b60008073ffffffffffffffffffffffffffffffffffffffff16600660009054906101000a900473ffffffffffffffffffffffffffffffffffffffff1673ffffffffffffffffffffffffffffffffffffffff16141561313c5761313582614fd3565b9050613237565b600660009054906101000a900473ffffffffffffffffffffffffffffffffffffffff1673ffffffffffffffffffffffffffffffffffffffff166343a468c8836040518263ffffffff167c0100000000000000000000000000000000000000000000000000000000028152600401808273ffffffffffffffffffffffffffffffffffffffff1673ffffffffffffffffffffffffffffffffffffffff168152602001915050602060405180830381600087803b1580156131f957600080fd5b505af115801561320d573d6000803e3d6000fd5b505050506040513d602081101561322357600080fd5b810190808051906020019092919050505090505b919050565b6000809054906101000a900473ffffffffffffffffffffffffffffffffffffffff1673ffffffffffffffffffffffffffffffffffffffff163373ffffffffffffffffffffffffffffffffffffffff1614151561329757600080fd5b8082111515156132a657600080fd5b81600d8190555080600e819055507ff8f7312d8aa9257dcfe43287f24cacc0f267875658809b6c7953b277565625228282604051808381526020018281526020019250505060405180910390a15050565b6000613301611c4b565b905090565b600260009054906101000a900473ffffffffffffffffffffffffffffffffffffffff1681565b6000809054906101000a900473ffffffffffffffffffffffffffffffffffffffff1673ffffffffffffffffffffffffffffffffffffffff163373ffffffffffffffffffffffffffffffffffffffff1614151561338757600080fd5b600560149054906101000a900460ff161515156133a357600080fd5b6001600560146101000a81548160ff0219169083151502179055507f6985a02210a168e66602d3235cb6db0e70f92b3ba4d376a33c0f3d9434bff62560405160405180910390a1565b6000809054906101000a900473ffffffffffffffffffffffffffffffffffffffff1673ffffffffffffffffffffffffffffffffffffffff163373ffffffffffffffffffffffffffffffffffffffff1614151561344757600080fd5b816007908051906020019061345d929190615e26565b508060089080519060200190613474929190615e26565b505050565b600f60149054906101000a900469ffffffffffffffffffff1681565b6000809054906101000a900473ffffffffffffffffffffffffffffffffffffffff1681565b600f60009054906101000a900469ffffffffffffffffffff1681565b6000600560009054906101000a900473ffffffffffffffffffffffffffffffffffffffff168073ffffffffffffffffffffffffffffffffffffffff163373ffffffffffffffffffffffffffffffffffffffff1614151561353557600080fd5b6135408585856150d4565b60019150509392505050565b60088054600181600116156101000203166002900480601f0160208091040260200160405190810160405280929190818152602001828054600181600116156101000203166002900480156135e25780601f106135b7576101008083540402835291602001916135e2565b820191906000526020600020905b8154815290600101906020018083116135c557829003601f168201915b505050505081565b6000600560009054906101000a900473ffffffffffffffffffffffffffffffffffffffff168073ffffffffffffffffffffffffffffffffffffffff163373ffffffffffffffffffffffffffffffffffffffff1614151561364957600080fd5b6136548386866155cb565b60019150509392505050565b6000809054906101000a900473ffffffffffffffffffffffffffffffffffffffff1673ffffffffffffffffffffffffffffffffffffffff163373ffffffffffffffffffffffffffffffffffffffff161415156136bb57600080fd5b6000809054906101000a900473ffffffffffffffffffffffffffffffffffffffff1673ffffffffffffffffffffffffffffffffffffffff166108fc3073ffffffffffffffffffffffffffffffffffffffff16319081150290604051600060405180830381858888f19350505050151561373057fe5b565b60008073ffffffffffffffffffffffffffffffffffffffff16600660009054906101000a900473ffffffffffffffffffffffffffffffffffffffff1673ffffffffffffffffffffffffffffffffffffffff16141561379b576137948383615823565b90506138d2565b600660009054906101000a900473ffffffffffffffffffffffffffffffffffffffff1673ffffffffffffffffffffffffffffffffffffffff16639cd1a1218484336040518463ffffffff167c0100000000000000000000000000000000000000000000000000000000028152600401808473ffffffffffffffffffffffffffffffffffffffff1673ffffffffffffffffffffffffffffffffffffffff1681526020018381526020018273ffffffffffffffffffffffffffffffffffffffff1673ffffffffffffffffffffffffffffffffffffffff1681526020019350505050602060405180830381600087803b15801561389457600080fd5b505af11580156138a8573d6000803e3d6000fd5b505050506040513d60208110156138be57600080fd5b810190808051906020019092919050505090505b92915050565b6000809054906101000a900473ffffffffffffffffffffffffffffffffffffffff1673ffffffffffffffffffffffffffffffffffffffff163373ffffffffffffffffffffffffffffffffffffffff1614151561393357600080fd5b600073ffffffffffffffffffffffffffffffffffffffff168173ffffffffffffffffffffffffffffffffffffffff161415151561396f57600080fd5b80601460006101000a81548173ffffffffffffffffffffffffffffffffffffffff021916908373ffffffffffffffffffffffffffffffffffffffff16021790555050565b60008060009054906101000a900473ffffffffffffffffffffffffffffffffffffffff1673ffffffffffffffffffffffffffffffffffffffff163373ffffffffffffffffffffffffffffffffffffffff16141515613a1057600080fd5b600b60009054906101000a900473ffffffffffffffffffffffffffffffffffffffff1673ffffffffffffffffffffffffffffffffffffffff16636f626eb3836040518263ffffffff167c0100000000000000000000000000000000000000000000000000000000028152600401808273ffffffffffffffffffffffffffffffffffffffff1673ffffffffffffffffffffffffffffffffffffffff168152602001915050602060405180830381600087803b158015613acd57600080fd5b505af1158015613ae1573d6000803e3d6000fd5b505050506040513d6020811015613af757600080fd5b81019080805190602001909291905050501515613b1357600080fd5b613b1c826130d4565b9050600260009054906101000a900473ffffffffffffffffffffffffffffffffffffffff1673ffffffffffffffffffffffffffffffffffffffff1663e30443bc8360006040518363ffffffff167c0100000000000000000000000000000000000000000000000000000000028152600401808373ffffffffffffffffffffffffffffffffffffffff1673ffffffffffffffffffffffffffffffffffffffff16815260200182815260200192505050600060405180830381600087803b158015613be457600080fd5b505af1158015613bf8573d6000803e3d6000fd5b50505050613c11816003546147cd90919063ffffffff16565b6003819055508173ffffffffffffffffffffffffffffffffffffffff167fdf58d2368c06216a398f05a7a88c8edc64a25c33f33fd2bd8b56fbc8822c02d8826040518082815260200191505060405180910390a25050565b600080fd5b6012600a9054906101000a900469ffffffffffffffffffff1681565b600660009054906101000a900473ffffffffffffffffffffffffffffffffffffffff1681565b600b60009054906101000a900473ffffffffffffffffffffffffffffffffffffffff1681565b600f600a9054906101000a900469ffffffffffffffffffff1681565b60115481565b60008073ffffffffffffffffffffffffffffffffffffffff16600660009054906101000a900473ffffffffffffffffffffffffffffffffffffffff1673ffffffffffffffffffffffffffffffffffffffff161415613d6157613d5a8383615853565b9050613e98565b600660009054906101000a900473ffffffffffffffffffffffffffffffffffffffff1673ffffffffffffffffffffffffffffffffffffffff1663554249b38484336040518463ffffffff167c0100000000000000000000000000000000000000000000000000000000028152600401808473ffffffffffffffffffffffffffffffffffffffff1673ffffffffffffffffffffffffffffffffffffffff1681526020018381526020018273ffffffffffffffffffffffffffffffffffffffff1673ffffffffffffffffffffffffffffffffffffffff1681526020019350505050602060405180830381600087803b158015613e5a57600080fd5b505af1158015613e6e573d6000803e3d6000fd5b505050506040513d6020811015613e8457600080fd5b810190808051906020019092919050505090505b92915050565b60008073ffffffffffffffffffffffffffffffffffffffff16600660009054906101000a900473ffffffffffffffffffffffffffffffffffffffff1673ffffffffffffffffffffffffffffffffffffffff161415613f0757613f008383615883565b9050614036565b600660009054906101000a900473ffffffffffffffffffffffffffffffffffffffff1673ffffffffffffffffffffffffffffffffffffffff166309ab8bba84846040518363ffffffff167c0100000000000000000000000000000000000000000000000000000000028152600401808373ffffffffffffffffffffffffffffffffffffffff1673ffffffffffffffffffffffffffffffffffffffff1681526020018273ffffffffffffffffffffffffffffffffffffffff1673ffffffffffffffffffffffffffffffffffffffff16815260200192505050602060405180830381600087803b158015613ff857600080fd5b505af115801561400c573d6000803e3d6000fd5b505050506040513d602081101561402257600080fd5b810190808051906020019092919050505090505b92915050565b600160009054906101000a900473ffffffffffffffffffffffffffffffffffffffff1681565b6000809054906101000a900473ffffffffffffffffffffffffffffffffffffffff1673ffffffffffffffffffffffffffffffffffffffff163373ffffffffffffffffffffffffffffffffffffffff161415156140bd57600080fd5b80600460006101000a81548173ffffffffffffffffffffffffffffffffffffffff021916908373ffffffffffffffffffffffffffffffffffffffff160217905550600460009054906101000a900473ffffffffffffffffffffffffffffffffffffffff1673ffffffffffffffffffffffffffffffffffffffff16634e71e0c86040518163ffffffff167c0100000000000000000000000000000000000000000000000000000000028152600401600060405180830381600087803b15801561418457600080fd5b505af1158015614198573d6000803e3d6000fd5b5050505050565b6000809054906101000a900473ffffffffffffffffffffffffffffffffffffffff1673ffffffffffffffffffffffffffffffffffffffff163373ffffffffffffffffffffffffffffffffffffffff161415156141fa57600080fd5b80600160006101000a81548173ffffffffffffffffffffffffffffffffffffffff021916908373ffffffffffffffffffffffffffffffffffffffff16021790555050565b6000600560149054906101000a900460ff1615151561425c57600080fd5b61426683836159b9565b905092915050565b8273ffffffffffffffffffffffffffffffffffffffff1663a9059cbb83836040518363ffffffff167c0100000000000000000000000000000000000000000000000000000000028152600401808373ffffffffffffffffffffffffffffffffffffffff1673ffffffffffffffffffffffffffffffffffffffff16815260200182815260200192505050602060405180830381600087803b15801561431157600080fd5b505af1158015614325573d6000803e3d6000fd5b505050506040513d602081101561433b57600080fd5b8101908080519060200190929190505050151561435457fe5b505050565b6000600354905090565b6000600560149054906101000a900460ff1615151561438157600080fd5b61438c8484846159d0565b90509392505050565b600460009054906101000a900473ffffffffffffffffffffffffffffffffffffffff1673ffffffffffffffffffffffffffffffffffffffff1663da46098c8285856040518463ffffffff167c0100000000000000000000000000000000000000000000000000000000028152600401808473ffffffffffffffffffffffffffffffffffffffff1673ffffffffffffffffffffffffffffffffffffffff1681526020018373ffffffffffffffffffffffffffffffffffffffff1673ffffffffffffffffffffffffffffffffffffffff1681526020018281526020019350505050600060405180830381600087803b15801561448e57600080fd5b505af11580156144a2573d6000803e3d6000fd5b505050508273ffffffffffffffffffffffffffffffffffffffff168173ffffffffffffffffffffffffffffffffffffffff167f8c5be1e5ebec7d5bd14f71427d1e84f3dd0314c0f7b2291e5b200ac8c7c3b925846040518082815260200191505060405180910390a3505050565b600080828401905083811015151561452457fe5b8091505092915050565b600080600c60009054906101000a900473ffffffffffffffffffffffffffffffffffffffff1673ffffffffffffffffffffffffffffffffffffffff16636f626eb3896040518263ffffffff167c0100000000000000000000000000000000000000000000000000000000028152600401808273ffffffffffffffffffffffffffffffffffffffff1673ffffffffffffffffffffffffffffffffffffffff168152602001915050602060405180830381600087803b1580156145ee57600080fd5b505af1158015614602573d6000803e3d6000fd5b505050506040513d602081101561461857600080fd5b8101908080519060200190929190505050806147285750600c60009054906101000a900473ffffffffffffffffffffffffffffffffffffffff1673ffffffffffffffffffffffffffffffffffffffff16636f626eb3846040518263ffffffff167c0100000000000000000000000000000000000000000000000000000000028152600401808273ffffffffffffffffffffffffffffffffffffffff1673ffffffffffffffffffffffffffffffffffffffff168152602001915050602060405180830381600087803b1580156146ec57600080fd5b505af1158015614700573d6000803e3d6000fd5b505050506040513d602081101561471657600080fd5b81019080805190602001909291905050505b1561473657600091506147c2565b614785846147778769ffffffffffffffffffff166147698a69ffffffffffffffffffff168c6159e990919063ffffffff16565b615a2490919063ffffffff16565b61451090919063ffffffff16565b905060008111156147be576147bd88601460009054906101000a900473ffffffffffffffffffffffffffffffffffffffff1683615a3f565b5b8091505b509695505050505050565b60008282111515156147db57fe5b818303905092915050565b6000600260009054906101000a900473ffffffffffffffffffffffffffffffffffffffff1673ffffffffffffffffffffffffffffffffffffffff166370a08231336040518263ffffffff167c0100000000000000000000000000000000000000000000000000000000028152600401808273ffffffffffffffffffffffffffffffffffffffff1673ffffffffffffffffffffffffffffffffffffffff168152602001915050602060405180830381600087803b1580156148a557600080fd5b505af11580156148b9573d6000803e3d6000fd5b505050506040513d60208110156148cf57600080fd5b810190808051906020019092919050505082111515156148ee57600080fd5b339050600260009054906101000a900473ffffffffffffffffffffffffffffffffffffffff1673ffffffffffffffffffffffffffffffffffffffff1663cf8eeb7e82846040518363ffffffff167c0100000000000000000000000000000000000000000000000000000000028152600401808373ffffffffffffffffffffffffffffffffffffffff1673ffffffffffffffffffffffffffffffffffffffff16815260200182815260200192505050600060405180830381600087803b1580156149b657600080fd5b505af11580156149ca573d6000803e3d6000fd5b505050506149e3826003546147cd90919063ffffffff16565b6003819055508073ffffffffffffffffffffffffffffffffffffffff167fcc16f5dbb4873280815c1ee09dbd06736cffcc184412cf7a71a0fdb75d397ca5836040518082815260200191505060405180910390a2600073ffffffffffffffffffffffffffffffffffffffff168173ffffffffffffffffffffffffffffffffffffffff167fddf252ad1be2c89b69c2b068fc378daa952ba7f163c4a11628f55a4df523b3ef846040518082815260200191505060405180910390a35050565b600460009054906101000a900473ffffffffffffffffffffffffffffffffffffffff1673ffffffffffffffffffffffffffffffffffffffff16631a46ec8285836040518363ffffffff167c0100000000000000000000000000000000000000000000000000000000028152600401808373ffffffffffffffffffffffffffffffffffffffff1673ffffffffffffffffffffffffffffffffffffffff1681526020018273ffffffffffffffffffffffffffffffffffffffff1673ffffffffffffffffffffffffffffffffffffffff16815260200192505050602060405180830381600087803b158015614b9257600080fd5b505af1158015614ba6573d6000803e3d6000fd5b505050506040513d6020811015614bbc57600080fd5b81019080805190602001909291905050508211151515614bdb57600080fd5b600460009054906101000a900473ffffffffffffffffffffffffffffffffffffffff1673ffffffffffffffffffffffffffffffffffffffff166397d88cd28583856040518463ffffffff167c0100000000000000000000000000000000000000000000000000000000028152600401808473ffffffffffffffffffffffffffffffffffffffff1673ffffffffffffffffffffffffffffffffffffffff1681526020018373ffffffffffffffffffffffffffffffffffffffff1673ffffffffffffffffffffffffffffffffffffffff1681526020018281526020019350505050600060405180830381600087803b158015614cd457600080fd5b505af1158015614ce8573d6000803e3d6000fd5b50505050614cf78484846155cb565b50505050565b600460009054906101000a900473ffffffffffffffffffffffffffffffffffffffff1673ffffffffffffffffffffffffffffffffffffffff16635fd72d168285856040518463ffffffff167c0100000000000000000000000000000000000000000000000000000000028152600401808473ffffffffffffffffffffffffffffffffffffffff1673ffffffffffffffffffffffffffffffffffffffff1681526020018373ffffffffffffffffffffffffffffffffffffffff1673ffffffffffffffffffffffffffffffffffffffff1681526020018281526020019350505050600060405180830381600087803b158015614df657600080fd5b505af1158015614e0a573d6000803e3d6000fd5b505050508273ffffffffffffffffffffffffffffffffffffffff168173ffffffffffffffffffffffffffffffffffffffff167f8c5be1e5ebec7d5bd14f71427d1e84f3dd0314c0f7b2291e5b200ac8c7c3b925600460009054906101000a900473ffffffffffffffffffffffffffffffffffffffff1673ffffffffffffffffffffffffffffffffffffffff16631a46ec8285886040518363ffffffff167c0100000000000000000000000000000000000000000000000000000000028152600401808373ffffffffffffffffffffffffffffffffffffffff1673ffffffffffffffffffffffffffffffffffffffff1681526020018273ffffffffffffffffffffffffffffffffffffffff1673ffffffffffffffffffffffffffffffffffffffff16815260200192505050602060405180830381600087803b158015614f4e57600080fd5b505af1158015614f62573d6000803e3d6000fd5b505050506040513d6020811015614f7857600080fd5b81019080805190602001909291905050506040518082815260200191505060405180910390a3505050565b6000600560149054906101000a900460ff16151515614fc157600080fd5b614fcb8383615de1565b905092915050565b6000600260009054906101000a900473ffffffffffffffffffffffffffffffffffffffff1673ffffffffffffffffffffffffffffffffffffffff166370a08231836040518263ffffffff167c0100000000000000000000000000000000000000000000000000000000028152600401808273ffffffffffffffffffffffffffffffffffffffff1673ffffffffffffffffffffffffffffffffffffffff168152602001915050602060405180830381600087803b15801561509257600080fd5b505af11580156150a6573d6000803e3d6000fd5b505050506040513d60208110156150bc57600080fd5b81019080805190602001909291905050509050919050565b6000600460009054906101000a900473ffffffffffffffffffffffffffffffffffffffff1673ffffffffffffffffffffffffffffffffffffffff16631a46ec8283866040518363ffffffff167c0100000000000000000000000000000000000000000000000000000000028152600401808373ffffffffffffffffffffffffffffffffffffffff1673ffffffffffffffffffffffffffffffffffffffff1681526020018273ffffffffffffffffffffffffffffffffffffffff1673ffffffffffffffffffffffffffffffffffffffff16815260200192505050602060405180830381600087803b1580156151c757600080fd5b505af11580156151db573d6000803e3d6000fd5b505050506040513d60208110156151f157600080fd5b810190808051906020019092919050505090508083111561532357600460009054906101000a900473ffffffffffffffffffffffffffffffffffffffff1673ffffffffffffffffffffffffffffffffffffffff1663da46098c838660006040518463ffffffff167c0100000000000000000000000000000000000000000000000000000000028152600401808473ffffffffffffffffffffffffffffffffffffffff1673ffffffffffffffffffffffffffffffffffffffff1681526020018373ffffffffffffffffffffffffffffffffffffffff1673ffffffffffffffffffffffffffffffffffffffff1681526020018281526020019350505050600060405180830381600087803b15801561530657600080fd5b505af115801561531a573d6000803e3d6000fd5b50505050615435565b600460009054906101000a900473ffffffffffffffffffffffffffffffffffffffff1673ffffffffffffffffffffffffffffffffffffffff166397d88cd28386866040518463ffffffff167c0100000000000000000000000000000000000000000000000000000000028152600401808473ffffffffffffffffffffffffffffffffffffffff1673ffffffffffffffffffffffffffffffffffffffff1681526020018373ffffffffffffffffffffffffffffffffffffffff1673ffffffffffffffffffffffffffffffffffffffff1681526020018281526020019350505050600060405180830381600087803b15801561541c57600080fd5b505af1158015615430573d6000803e3d6000fd5b505050505b8373ffffffffffffffffffffffffffffffffffffffff168273ffffffffffffffffffffffffffffffffffffffff167f8c5be1e5ebec7d5bd14f71427d1e84f3dd0314c0f7b2291e5b200ac8c7c3b925600460009054906101000a900473ffffffffffffffffffffffffffffffffffffffff1673ffffffffffffffffffffffffffffffffffffffff16631a46ec8286896040518363ffffffff167c0100000000000000000000000000000000000000000000000000000000028152600401808373ffffffffffffffffffffffffffffffffffffffff1673ffffffffffffffffffffffffffffffffffffffff1681526020018273ffffffffffffffffffffffffffffffffffffffff1673ffffffffffffffffffffffffffffffffffffffff16815260200192505050602060405180830381600087803b15801561557557600080fd5b505af1158015615589573d6000803e3d6000fd5b505050506040513d602081101561559f57600080fd5b81019080805190602001909291905050506040518082815260200191505060405180910390a350505050565b600b60009054906101000a900473ffffffffffffffffffffffffffffffffffffffff1673ffffffffffffffffffffffffffffffffffffffff16636f626eb3846040518263ffffffff167c0100000000000000000000000000000000000000000000000000000000028152600401808273ffffffffffffffffffffffffffffffffffffffff1673ffffffffffffffffffffffffffffffffffffffff168152602001915050602060405180830381600087803b15801561568857600080fd5b505af115801561569c573d6000803e3d6000fd5b505050506040513d60208110156156b257600080fd5b81019080805190602001909291905050501515156156cf57600080fd5b600b60009054906101000a900473ffffffffffffffffffffffffffffffffffffffff1673ffffffffffffffffffffffffffffffffffffffff16636f626eb3836040518263ffffffff167c0100000000000000000000000000000000000000000000000000000000028152600401808273ffffffffffffffffffffffffffffffffffffffff1673ffffffffffffffffffffffffffffffffffffffff168152602001915050602060405180830381600087803b15801561578c57600080fd5b505af11580156157a0573d6000803e3d6000fd5b505050506040513d60208110156157b657600080fd5b81019080805190602001909291905050501515156157d357600080fd5b6157de838383615a3f565b61581d8282600f60009054906101000a900469ffffffffffffffffffff16600f600a9054906101000a900469ffffffffffffffffffff1660008861452e565b50505050565b6000600560149054906101000a900460ff1615151561584157600080fd5b61584b8383615df8565b905092915050565b6000600560149054906101000a900460ff1615151561587157600080fd5b61587b8383615e0f565b905092915050565b6000600460009054906101000a900473ffffffffffffffffffffffffffffffffffffffff1673ffffffffffffffffffffffffffffffffffffffff16631a46ec8284846040518363ffffffff167c0100000000000000000000000000000000000000000000000000000000028152600401808373ffffffffffffffffffffffffffffffffffffffff1673ffffffffffffffffffffffffffffffffffffffff1681526020018273ffffffffffffffffffffffffffffffffffffffff1673ffffffffffffffffffffffffffffffffffffffff16815260200192505050602060405180830381600087803b15801561597657600080fd5b505af115801561598a573d6000803e3d6000fd5b505050506040513d60208110156159a057600080fd5b8101908080519060200190929190505050905092915050565b60006159c6838333614395565b6001905092915050565b60006159de84848433614aa1565b600190509392505050565b60008060008414156159fe5760009150615a1d565b8284029050828482811515615a0f57fe5b04141515615a1957fe5b8091505b5092915050565b6000808284811515615a3257fe5b0490508091505092915050565b600073ffffffffffffffffffffffffffffffffffffffff168273ffffffffffffffffffffffffffffffffffffffff1614151515615a7b57600080fd5b600073ffffffffffffffffffffffffffffffffffffffff168373ffffffffffffffffffffffffffffffffffffffff1614151515615ab757600080fd5b600260009054906101000a900473ffffffffffffffffffffffffffffffffffffffff1673ffffffffffffffffffffffffffffffffffffffff166370a08231846040518263ffffffff167c0100000000000000000000000000000000000000000000000000000000028152600401808273ffffffffffffffffffffffffffffffffffffffff1673ffffffffffffffffffffffffffffffffffffffff168152602001915050602060405180830381600087803b158015615b7457600080fd5b505af1158015615b88573d6000803e3d6000fd5b505050506040513d6020811015615b9e57600080fd5b81019080805190602001909291905050508111151515615bbd57600080fd5b600260009054906101000a900473ffffffffffffffffffffffffffffffffffffffff1673ffffffffffffffffffffffffffffffffffffffff1663cf8eeb7e84836040518363ffffffff167c0100000000000000000000000000000000000000000000000000000000028152600401808373ffffffffffffffffffffffffffffffffffffffff1673ffffffffffffffffffffffffffffffffffffffff16815260200182815260200192505050600060405180830381600087803b158015615c8257600080fd5b505af1158015615c96573d6000803e3d6000fd5b50505050600260009054906101000a900473ffffffffffffffffffffffffffffffffffffffff1673ffffffffffffffffffffffffffffffffffffffff166321e5383a83836040518363ffffffff167c0100000000000000000000000000000000000000000000000000000000028152600401808373ffffffffffffffffffffffffffffffffffffffff1673ffffffffffffffffffffffffffffffffffffffff16815260200182815260200192505050600060405180830381600087803b158015615d5f57600080fd5b505af1158015615d73573d6000803e3d6000fd5b505050508173ffffffffffffffffffffffffffffffffffffffff168373ffffffffffffffffffffffffffffffffffffffff167fddf252ad1be2c89b69c2b068fc378daa952ba7f163c4a11628f55a4df523b3ef836040518082815260200191505060405180910390a3505050565b6000615dee8383336150d4565b6001905092915050565b6000615e053384846155cb565b6001905092915050565b6000615e1c838333614cfd565b6001905092915050565b828054600181600116156101000203166002900490600052602060002090601f016020900481019282601f10615e6757805160ff1916838001178555615e95565b82800160010185558215615e95579182015b82811115615e94578251825591602001919060010190615e79565b5b509050615ea29190615ea6565b5090565b615ec891905b80821115615ec4576000816000905550600101615eac565b5090565b905600a165627a7a723058202b495405b892652567dbf444f06ce21699c7a581e7efa0f9c7a5f548ae430ba40029",
  "source": "pragma solidity ^0.4.18;\n\ncontract DelegateERC20 {\n  function delegateTotalSupply() public view returns (uint256);\n  function delegateBalanceOf(address who) public view returns (uint256);\n  function delegateTransfer(address to, uint256 value, address origSender) public returns (bool);\n  function delegateAllowance(address owner, address spender) public view returns (uint256);\n  function delegateTransferFrom(address from, address to, uint256 value, address origSender) public returns (bool);\n  function delegateApprove(address spender, uint256 value, address origSender) public returns (bool);\n  function delegateIncreaseApproval(address spender, uint addedValue, address origSender) public returns (bool);\n  function delegateDecreaseApproval(address spender, uint subtractedValue, address origSender) public returns (bool);\n}\n\nlibrary SafeMath {\n\n  /**\n  * @dev Multiplies two numbers, throws on overflow.\n  */\n  function mul(uint256 a, uint256 b) internal pure returns (uint256) {\n    if (a == 0) {\n      return 0;\n    }\n    uint256 c = a * b;\n    assert(c / a == b);\n    return c;\n  }\n\n  /**\n  * @dev Integer division of two numbers, truncating the quotient.\n  */\n  function div(uint256 a, uint256 b) internal pure returns (uint256) {\n    // assert(b > 0); // Solidity automatically throws when dividing by 0\n    uint256 c = a / b;\n    // assert(a == b * c + a % b); // There is no case in which this doesn't hold\n    return c;\n  }\n\n  /**\n  * @dev Substracts two numbers, throws on overflow (i.e. if subtrahend is greater than minuend).\n  */\n  function sub(uint256 a, uint256 b) internal pure returns (uint256) {\n    assert(b <= a);\n    return a - b;\n  }\n\n  /**\n  * @dev Adds two numbers, throws on overflow.\n  */\n  function add(uint256 a, uint256 b) internal pure returns (uint256) {\n    uint256 c = a + b;\n    assert(c >= a);\n    return c;\n  }\n}\n\ncontract Ownable {\n  address public owner;\n\n\n  event OwnershipTransferred(address indexed previousOwner, address indexed newOwner);\n\n\n  /**\n   * @dev The Ownable constructor sets the original `owner` of the contract to the sender\n   * account.\n   */\n  function Ownable() public {\n    owner = msg.sender;\n  }\n\n  /**\n   * @dev Throws if called by any account other than the owner.\n   */\n  modifier onlyOwner() {\n    require(msg.sender == owner);\n    _;\n  }\n\n  /**\n   * @dev Allows the current owner to transfer control of the contract to a newOwner.\n   * @param newOwner The address to transfer ownership to.\n   */\n  function transferOwnership(address newOwner) public onlyOwner {\n    require(newOwner != address(0));\n    OwnershipTransferred(owner, newOwner);\n    owner = newOwner;\n  }\n\n}\n\ncontract Pausable is Ownable {\n  event Pause();\n  event Unpause();\n\n  bool public paused = false;\n\n\n  /**\n   * @dev Modifier to make a function callable only when the contract is not paused.\n   */\n  modifier whenNotPaused() {\n    require(!paused);\n    _;\n  }\n\n  /**\n   * @dev Modifier to make a function callable only when the contract is paused.\n   */\n  modifier whenPaused() {\n    require(paused);\n    _;\n  }\n\n  /**\n   * @dev called by the owner to pause, triggers stopped state\n   */\n  function pause() onlyOwner whenNotPaused public {\n    paused = true;\n    Pause();\n  }\n\n  /**\n   * @dev called by the owner to unpause, returns to normal state\n   */\n  function unpause() onlyOwner whenPaused public {\n    paused = false;\n    Unpause();\n  }\n}\n\ncontract CanReclaimToken is Ownable {\n  using SafeERC20 for ERC20Basic;\n\n  /**\n   * @dev Reclaim all ERC20Basic compatible tokens\n   * @param token ERC20Basic The address of the token contract\n   */\n  function reclaimToken(ERC20Basic token) external onlyOwner {\n    uint256 balance = token.balanceOf(this);\n    token.safeTransfer(owner, balance);\n  }\n\n}\n\ncontract Claimable is Ownable {\n  address public pendingOwner;\n\n  /**\n   * @dev Modifier throws if called by any account other than the pendingOwner.\n   */\n  modifier onlyPendingOwner() {\n    require(msg.sender == pendingOwner);\n    _;\n  }\n\n  /**\n   * @dev Allows the current owner to set the pendingOwner address.\n   * @param newOwner The address to transfer ownership to.\n   */\n  function transferOwnership(address newOwner) onlyOwner public {\n    pendingOwner = newOwner;\n  }\n\n  /**\n   * @dev Allows the pendingOwner address to finalize the transfer.\n   */\n  function claimOwnership() onlyPendingOwner public {\n    OwnershipTransferred(owner, pendingOwner);\n    owner = pendingOwner;\n    pendingOwner = address(0);\n  }\n}\n\ncontract AddressList is Claimable {\n    string public name;\n    mapping (address => bool) public onList;\n\n    function AddressList(string _name, bool nullValue) public {\n        name = _name;\n        onList[0x0] = nullValue;\n    }\n    event ChangeWhiteList(address indexed to, bool onList);\n\n    // Set whether _to is on the list or not. Whether 0x0 is on the list\n    // or not cannot be set here - it is set once and for all by the constructor.\n    function changeList(address _to, bool _onList) onlyOwner public {\n        require(_to != 0x0);\n        if (onList[_to] != _onList) {\n            onList[_to] = _onList;\n            ChangeWhiteList(_to, _onList);\n        }\n    }\n}\n\ncontract HasNoContracts is Ownable {\n\n  /**\n   * @dev Reclaim ownership of Ownable contracts\n   * @param contractAddr The address of the Ownable to be reclaimed.\n   */\n  function reclaimContract(address contractAddr) external onlyOwner {\n    Ownable contractInst = Ownable(contractAddr);\n    contractInst.transferOwnership(owner);\n  }\n}\n\ncontract HasNoEther is Ownable {\n\n  /**\n  * @dev Constructor that rejects incoming Ether\n  * @dev The `payable` flag is added so we can access `msg.value` without compiler warning. If we\n  * leave out payable, then Solidity will allow inheriting contracts to implement a payable\n  * constructor. By doing it this way we prevent a payable constructor from working. Alternatively\n  * we could use assembly to access msg.value.\n  */\n  function HasNoEther() public payable {\n    require(msg.value == 0);\n  }\n\n  /**\n   * @dev Disallows direct send by settings a default function without the `payable` flag.\n   */\n  function() external {\n  }\n\n  /**\n   * @dev Transfer all Ether held by the contract to the owner.\n   */\n  function reclaimEther() external onlyOwner {\n    assert(owner.send(this.balance));\n  }\n}\n\ncontract HasNoTokens is CanReclaimToken {\n\n /**\n  * @dev Reject all ERC223 compatible tokens\n  * @param from_ address The address that is transferring the tokens\n  * @param value_ uint256 the amount of the specified token\n  * @param data_ Bytes The data passed from the caller.\n  */\n  function tokenFallback(address from_, uint256 value_, bytes data_) external {\n    from_;\n    value_;\n    data_;\n    revert();\n  }\n\n}\n\ncontract NoOwner is HasNoEther, HasNoTokens, HasNoContracts {\n}\n\ncontract AllowanceSheet is Claimable {\n    using SafeMath for uint256;\n\n    mapping (address => mapping (address => uint256)) public allowanceOf;\n\n    function addAllowance(address tokenHolder, address spender, uint256 value) public onlyOwner {\n        allowanceOf[tokenHolder][spender] = allowanceOf[tokenHolder][spender].add(value);\n    }\n\n    function subAllowance(address tokenHolder, address spender, uint256 value) public onlyOwner {\n        allowanceOf[tokenHolder][spender] = allowanceOf[tokenHolder][spender].sub(value);\n    }\n\n    function setAllowance(address tokenHolder, address spender, uint256 value) public onlyOwner {\n        allowanceOf[tokenHolder][spender] = value;\n    }\n}\n\ncontract BalanceSheet is Claimable {\n    using SafeMath for uint256;\n\n    mapping (address => uint256) public balanceOf;\n\n    function addBalance(address addr, uint256 value) public onlyOwner {\n        balanceOf[addr] = balanceOf[addr].add(value);\n    }\n\n    function subBalance(address addr, uint256 value) public onlyOwner {\n        balanceOf[addr] = balanceOf[addr].sub(value);\n    }\n\n    function setBalance(address addr, uint256 value) public onlyOwner {\n        balanceOf[addr] = value;\n    }\n}\n\ncontract ERC20Basic {\n  function totalSupply() public view returns (uint256);\n  function balanceOf(address who) public view returns (uint256);\n  function transfer(address to, uint256 value) public returns (bool);\n  event Transfer(address indexed from, address indexed to, uint256 value);\n}\n\ncontract BasicToken is ERC20Basic, Claimable {\n  using SafeMath for uint256;\n\n  BalanceSheet public balances;\n\n  uint256 totalSupply_;\n\n  function setBalanceSheet(address sheet) external onlyOwner {\n    balances = BalanceSheet(sheet);\n    balances.claimOwnership();\n  }\n\n  /**\n  * @dev total number of tokens in existence\n  */\n  function totalSupply() public view returns (uint256) {\n    return totalSupply_;\n  }\n\n  /**\n  * @dev transfer token for a specified address\n  * @param _to The address to transfer to.\n  * @param _value The amount to be transferred.\n  */\n  function transfer(address _to, uint256 _value) public returns (bool) {\n    transferAllArgsNoAllowance(msg.sender, _to, _value);\n    return true;\n  }\n\n  function transferAllArgsNoAllowance(address _from, address _to, uint256 _value) internal {\n    require(_to != address(0));\n    require(_from != address(0));\n    require(_value <= balances.balanceOf(_from));\n\n    // SafeMath.sub will throw if there is not enough balance.\n    balances.subBalance(_from, _value);\n    balances.addBalance(_to, _value);\n    Transfer(_from, _to, _value);\n  }\n\n  /**\n  * @dev Gets the balance of the specified address.\n  * @param _owner The address to query the the balance of.\n  * @return An uint256 representing the amount owned by the passed address.\n  */\n  function balanceOf(address _owner) public view returns (uint256 balance) {\n    return balances.balanceOf(_owner);\n  }\n}\n\ncontract BurnableToken is BasicToken {\n\n  event Burn(address indexed burner, uint256 value);\n\n  /**\n   * @dev Burns a specific amount of tokens.\n   * @param _value The amount of token to be burned.\n   */\n  function burn(uint256 _value) public {\n    require(_value <= balances.balanceOf(msg.sender));\n    // no need to require value <= totalSupply, since that would imply the\n    // sender's balance is greater than the totalSupply, which *should* be an assertion failure\n\n    address burner = msg.sender;\n    balances.subBalance(burner, _value);\n    totalSupply_ = totalSupply_.sub(_value);\n    Burn(burner, _value);\n    Transfer(burner, address(0), _value);\n  }\n}\n\ncontract ERC20 is ERC20Basic {\n  function allowance(address owner, address spender) public view returns (uint256);\n  function transferFrom(address from, address to, uint256 value) public returns (bool);\n  function approve(address spender, uint256 value) public returns (bool);\n  event Approval(address indexed owner, address indexed spender, uint256 value);\n}\n\nlibrary SafeERC20 {\n  function safeTransfer(ERC20Basic token, address to, uint256 value) internal {\n    assert(token.transfer(to, value));\n  }\n\n  function safeTransferFrom(ERC20 token, address from, address to, uint256 value) internal {\n    assert(token.transferFrom(from, to, value));\n  }\n\n  function safeApprove(ERC20 token, address spender, uint256 value) internal {\n    assert(token.approve(spender, value));\n  }\n}\n\ncontract StandardToken is ERC20, BasicToken {\n\n  AllowanceSheet public allowances;\n\n  function setAllowanceSheet(address sheet) external onlyOwner {\n    allowances = AllowanceSheet(sheet);\n    allowances.claimOwnership();\n  }\n\n  /**\n   * @dev Transfer tokens from one address to another\n   * @param _from address The address which you want to send tokens from\n   * @param _to address The address which you want to transfer to\n   * @param _value uint256 the amount of tokens to be transferred\n   */\n  function transferFrom(address _from, address _to, uint256 _value) public returns (bool) {\n    transferAllArgsYesAllowance(_from, _to, _value, msg.sender);\n    return true;\n  }\n\n  function transferAllArgsYesAllowance(address _from, address _to, uint256 _value, address spender) internal {\n    require(_value <= allowances.allowanceOf(_from, spender));\n\n    allowances.subAllowance(_from, spender, _value);\n    transferAllArgsNoAllowance(_from, _to, _value);\n  }\n\n  /**\n   * @dev Approve the passed address to spend the specified amount of tokens on behalf of msg.sender.\n   *\n   * Beware that changing an allowance with this method brings the risk that someone may use both the old\n   * and the new allowance by unfortunate transaction ordering. One possible solution to mitigate this\n   * race condition is to first reduce the spender's allowance to 0 and set the desired value afterwards:\n   * https://github.com/ethereum/EIPs/issues/20#issuecomment-263524729\n   * @param _spender The address which will spend the funds.\n   * @param _value The amount of tokens to be spent.\n   */\n  function approve(address _spender, uint256 _value) public returns (bool) {\n    approveAllArgs(_spender, _value, msg.sender);\n    return true;\n  }\n\n  function approveAllArgs(address _spender, uint256 _value, address _tokenHolder) internal {\n    allowances.setAllowance(_tokenHolder, _spender, _value);\n    Approval(_tokenHolder, _spender, _value);\n  }\n\n  /**\n   * @dev Function to check the amount of tokens that an owner allowed to a spender.\n   * @param _owner address The address which owns the funds.\n   * @param _spender address The address which will spend the funds.\n   * @return A uint256 specifying the amount of tokens still available for the spender.\n   */\n  function allowance(address _owner, address _spender) public view returns (uint256) {\n    return allowances.allowanceOf(_owner, _spender);\n  }\n\n  /**\n   * @dev Increase the amount of tokens that an owner allowed to a spender.\n   *\n   * approve should be called when allowed[_spender] == 0. To increment\n   * allowed value is better to use this function to avoid 2 calls (and wait until\n   * the first transaction is mined)\n   * From MonolithDAO Token.sol\n   * @param _spender The address which will spend the funds.\n   * @param _addedValue The amount of tokens to increase the allowance by.\n   */\n  function increaseApproval(address _spender, uint _addedValue) public returns (bool) {\n    increaseApprovalAllArgs(_spender, _addedValue, msg.sender);\n    return true;\n  }\n\n  function increaseApprovalAllArgs(address _spender, uint _addedValue, address tokenHolder) internal {\n    allowances.addAllowance(tokenHolder, _spender, _addedValue);\n    Approval(tokenHolder, _spender, allowances.allowanceOf(tokenHolder, _spender));\n  }\n\n  /**\n   * @dev Decrease the amount of tokens that an owner allowed to a spender.\n   *\n   * approve should be called when allowed[_spender] == 0. To decrement\n   * allowed value is better to use this function to avoid 2 calls (and wait until\n   * the first transaction is mined)\n   * From MonolithDAO Token.sol\n   * @param _spender The address which will spend the funds.\n   * @param _subtractedValue The amount of tokens to decrease the allowance by.\n   */\n  function decreaseApproval(address _spender, uint _subtractedValue) public returns (bool) {\n    decreaseApprovalAllArgs(_spender, _subtractedValue, msg.sender);\n    return true;\n  }\n\n  function decreaseApprovalAllArgs(address _spender, uint _subtractedValue, address tokenHolder) internal {\n    uint oldValue = allowances.allowanceOf(tokenHolder, _spender);\n    if (_subtractedValue > oldValue) {\n      allowances.setAllowance(tokenHolder, _spender, 0);\n    } else {\n      allowances.subAllowance(tokenHolder, _spender, _subtractedValue);\n    }\n    Approval(tokenHolder, _spender, allowances.allowanceOf(tokenHolder, _spender));\n  }\n\n}\n\ncontract CanDelegate is StandardToken {\n    // If this contract needs to be upgraded, the new contract will be stored\n    // in 'delegate' and any ERC20 calls to this contract will be delegated to that one.\n    DelegateERC20 public delegate;\n\n    event DelegatedTo(address indexed newContract);\n\n    // Can undelegate by passing in newContract = address(0)\n    function delegateToNewContract(DelegateERC20 newContract) public onlyOwner {\n        delegate = newContract;\n        DelegatedTo(delegate);\n    }\n\n    // If a delegate has been designated, all ERC20 calls are forwarded to it\n    function transfer(address to, uint256 value) public returns (bool) {\n        if (delegate == address(0)) {\n            return super.transfer(to, value);\n        } else {\n            return delegate.delegateTransfer(to, value, msg.sender);\n        }\n    }\n\n    function transferFrom(address from, address to, uint256 value) public returns (bool) {\n        if (delegate == address(0)) {\n            return super.transferFrom(from, to, value);\n        } else {\n            return delegate.delegateTransferFrom(from, to, value, msg.sender);\n        }\n    }\n\n    function balanceOf(address who) public view returns (uint256) {\n        if (delegate == address(0)) {\n            return super.balanceOf(who);\n        } else {\n            return delegate.delegateBalanceOf(who);\n        }\n    }\n\n    function approve(address spender, uint256 value) public returns (bool) {\n        if (delegate == address(0)) {\n            return super.approve(spender, value);\n        } else {\n            return delegate.delegateApprove(spender, value, msg.sender);\n        }\n    }\n\n    function allowance(address _owner, address spender) public view returns (uint256) {\n        if (delegate == address(0)) {\n            return super.allowance(_owner, spender);\n        } else {\n            return delegate.delegateAllowance(_owner, spender);\n        }\n    }\n\n    function totalSupply() public view returns (uint256) {\n        if (delegate == address(0)) {\n            return super.totalSupply();\n        } else {\n            return delegate.delegateTotalSupply();\n        }\n    }\n\n    function increaseApproval(address spender, uint addedValue) public returns (bool) {\n        if (delegate == address(0)) {\n            return super.increaseApproval(spender, addedValue);\n        } else {\n            return delegate.delegateIncreaseApproval(spender, addedValue, msg.sender);\n        }\n    }\n\n    function decreaseApproval(address spender, uint subtractedValue) public returns (bool) {\n        if (delegate == address(0)) {\n            return super.decreaseApproval(spender, subtractedValue);\n        } else {\n            return delegate.delegateDecreaseApproval(spender, subtractedValue, msg.sender);\n        }\n    }\n}\n\ncontract StandardDelegate is StandardToken, DelegateERC20 {\n    address public delegatedFrom;\n\n    modifier onlySender(address source) {\n        require(msg.sender == source);\n        _;\n    }\n\n    function setDelegatedFrom(address addr) onlyOwner public {\n        delegatedFrom = addr;\n    }\n\n    // All delegate ERC20 functions are forwarded to corresponding normal functions\n    function delegateTotalSupply() public view returns (uint256) {\n        return totalSupply();\n    }\n\n    function delegateBalanceOf(address who) public view returns (uint256) {\n        return balanceOf(who);\n    }\n\n    function delegateTransfer(address to, uint256 value, address origSender) onlySender(delegatedFrom) public returns (bool) {\n        transferAllArgsNoAllowance(origSender, to, value);\n        return true;\n    }\n\n    function delegateAllowance(address owner, address spender) public view returns (uint256) {\n        return allowance(owner, spender);\n    }\n\n    function delegateTransferFrom(address from, address to, uint256 value, address origSender) onlySender(delegatedFrom) public returns (bool) {\n        transferAllArgsYesAllowance(from, to, value, origSender);\n        return true;\n    }\n\n    function delegateApprove(address spender, uint256 value, address origSender) onlySender(delegatedFrom) public returns (bool) {\n        approveAllArgs(spender, value, origSender);\n        return true;\n    }\n\n    function delegateIncreaseApproval(address spender, uint addedValue, address origSender) onlySender(delegatedFrom) public returns (bool) {\n        increaseApprovalAllArgs(spender, addedValue, origSender);\n        return true;\n    }\n\n    function delegateDecreaseApproval(address spender, uint subtractedValue, address origSender) onlySender(delegatedFrom) public returns (bool) {\n        decreaseApprovalAllArgs(spender, subtractedValue, origSender);\n        return true;\n    }\n}\n\ncontract PausableToken is StandardToken, Pausable {\n\n  function transfer(address _to, uint256 _value) public whenNotPaused returns (bool) {\n    return super.transfer(_to, _value);\n  }\n\n  function transferFrom(address _from, address _to, uint256 _value) public whenNotPaused returns (bool) {\n    return super.transferFrom(_from, _to, _value);\n  }\n\n  function approve(address _spender, uint256 _value) public whenNotPaused returns (bool) {\n    return super.approve(_spender, _value);\n  }\n\n  function increaseApproval(address _spender, uint _addedValue) public whenNotPaused returns (bool success) {\n    return super.increaseApproval(_spender, _addedValue);\n  }\n\n  function decreaseApproval(address _spender, uint _subtractedValue) public whenNotPaused returns (bool success) {\n    return super.decreaseApproval(_spender, _subtractedValue);\n  }\n}\n\ncontract OldTrueUSD is StandardDelegate, PausableToken, BurnableToken, NoOwner, CanDelegate {\n    string public name = \"TrueUSD\";\n    string public symbol = \"TUSD\";\n    uint8 public constant decimals = 18;\n\n    AddressList public canReceiveMintWhiteList;\n    AddressList public canBurnWhiteList;\n    AddressList public blackList;\n    AddressList public noFeesList;\n    uint256 public burnMin = 10000 * 10**uint256(decimals);\n    uint256 public burnMax = 20000000 * 10**uint256(decimals);\n\n    uint80 public transferFeeNumerator = 7;\n    uint80 public transferFeeDenominator = 10000;\n    uint80 public mintFeeNumerator = 0;\n    uint80 public mintFeeDenominator = 10000;\n    uint256 public mintFeeFlat = 0;\n    uint80 public burnFeeNumerator = 0;\n    uint80 public burnFeeDenominator = 10000;\n    uint256 public burnFeeFlat = 0;\n    address public staker;\n\n    event ChangeBurnBoundsEvent(uint256 newMin, uint256 newMax);\n    event Mint(address indexed to, uint256 amount);\n    event WipedAccount(address indexed account, uint256 balance);\n\n    function OldTrueUSD() public {\n        totalSupply_ = 0;\n        staker = msg.sender;\n    }\n\n    function setLists(AddressList _canReceiveMintWhiteList, AddressList _canBurnWhiteList, AddressList _blackList, AddressList _noFeesList) onlyOwner public {\n        canReceiveMintWhiteList = _canReceiveMintWhiteList;\n        canBurnWhiteList = _canBurnWhiteList;\n        blackList = _blackList;\n        noFeesList = _noFeesList;\n    }\n\n    function changeName(string _name, string _symbol) onlyOwner public {\n        name = _name;\n        symbol = _symbol;\n    }\n\n    //Burning functions as withdrawing money from the system. The platform will keep track of who burns coins,\n    //and will send them back the equivalent amount of money (rounded down to the nearest cent).\n    function burn(uint256 _value) public {\n        require(canBurnWhiteList.onList(msg.sender));\n        require(_value >= burnMin);\n        require(_value <= burnMax);\n        uint256 fee = payStakingFee(msg.sender, _value, burnFeeNumerator, burnFeeDenominator, burnFeeFlat, 0x0);\n        uint256 remaining = _value.sub(fee);\n        super.burn(remaining);\n    }\n\n    //Create _amount new tokens and transfer them to _to.\n    //Based on code by OpenZeppelin: https://github.com/OpenZeppelin/zeppelin-solidity/blob/master/contracts/token/MintableToken.sol\n    function mint(address _to, uint256 _amount) onlyOwner public {\n        require(canReceiveMintWhiteList.onList(_to));\n        totalSupply_ = totalSupply_.add(_amount);\n        balances.addBalance(_to, _amount);\n        Mint(_to, _amount);\n        Transfer(address(0), _to, _amount);\n        payStakingFee(_to, _amount, mintFeeNumerator, mintFeeDenominator, mintFeeFlat, 0x0);\n    }\n\n    //Change the minimum and maximum amount that can be burned at once. Burning\n    //may be disabled by setting both to 0 (this will not be done under normal\n    //operation, but we can't add checks to disallow it without losing a lot of\n    //flexibility since burning could also be as good as disabled\n    //by setting the minimum extremely high, and we don't want to lock\n    //in any particular cap for the minimum)\n    function changeBurnBounds(uint newMin, uint newMax) onlyOwner public {\n        require(newMin <= newMax);\n        burnMin = newMin;\n        burnMax = newMax;\n        ChangeBurnBoundsEvent(newMin, newMax);\n    }\n\n    // transfer and transferFrom are both dispatched to this function, so we\n    // check blacklist and pay staking fee here.\n    function transferAllArgsNoAllowance(address _from, address _to, uint256 _value) internal {\n        require(!blackList.onList(_from));\n        require(!blackList.onList(_to));\n        super.transferAllArgsNoAllowance(_from, _to, _value);\n        payStakingFee(_to, _value, transferFeeNumerator, transferFeeDenominator, 0, _from);\n    }\n\n    function wipeBlacklistedAccount(address account) public onlyOwner {\n        require(blackList.onList(account));\n        uint256 oldValue = balanceOf(account);\n        balances.setBalance(account, 0);\n        totalSupply_ = totalSupply_.sub(oldValue);\n        WipedAccount(account, oldValue);\n    }\n\n    function payStakingFee(address payer, uint256 value, uint80 numerator, uint80 denominator, uint256 flatRate, address otherParticipant) private returns (uint256) {\n        if (noFeesList.onList(payer) || noFeesList.onList(otherParticipant)) {\n            return 0;\n        }\n        uint256 stakingFee = value.mul(numerator).div(denominator).add(flatRate);\n        if (stakingFee > 0) {\n            super.transferAllArgsNoAllowance(payer, staker, stakingFee);\n        }\n        return stakingFee;\n    }\n\n    function changeStakingFees(uint80 _transferFeeNumerator,\n                                 uint80 _transferFeeDenominator,\n                                 uint80 _mintFeeNumerator,\n                                 uint80 _mintFeeDenominator,\n                                 uint256 _mintFeeFlat,\n                                 uint80 _burnFeeNumerator,\n                                 uint80 _burnFeeDenominator,\n                                 uint256 _burnFeeFlat) public onlyOwner {\n        require(_transferFeeDenominator != 0);\n        require(_mintFeeDenominator != 0);\n        require(_burnFeeDenominator != 0);\n        transferFeeNumerator = _transferFeeNumerator;\n        transferFeeDenominator = _transferFeeDenominator;\n        mintFeeNumerator = _mintFeeNumerator;\n        mintFeeDenominator = _mintFeeDenominator;\n        mintFeeFlat = _mintFeeFlat;\n        burnFeeNumerator = _burnFeeNumerator;\n        burnFeeDenominator = _burnFeeDenominator;\n        burnFeeFlat = _burnFeeFlat;\n    }\n\n    function changeStaker(address newStaker) public onlyOwner {\n        require(newStaker != address(0));\n        staker = newStaker;\n    }\n}",
  "sourcePath": "/Users/benjamin/winTheGameInc/trueUSD/contracts/PreviousDeployment.sol",
  "compiler": {
    "name": "solc",
    "version": "0.4.23+commit.124ca40d.Emscripten.clang"
  },
  "schemaVersion": "2.0.0",
  "updatedAt": "2018-04-21T23:22:40.114Z"
}